{
  "contractName": "Crud",
  "abi": [
    {
      "inputs": [
        {
          "internalType": "string",
          "name": "name",
          "type": "string"
        },
        {
          "internalType": "uint256",
          "name": "quantity",
          "type": "uint256"
        }
      ],
      "name": "createItem",
      "outputs": [],
      "stateMutability": "nonpayable",
      "type": "function"
    },
    {
      "inputs": [
        {
          "internalType": "uint256",
          "name": "id",
          "type": "uint256"
        }
      ],
      "name": "readItem",
      "outputs": [
        {
          "internalType": "string",
          "name": "",
          "type": "string"
        },
        {
          "internalType": "uint256",
          "name": "",
          "type": "uint256"
        }
      ],
      "stateMutability": "view",
      "type": "function",
      "constant": true
    },
    {
      "inputs": [
        {
          "internalType": "uint256",
          "name": "id",
          "type": "uint256"
        },
        {
          "internalType": "string",
          "name": "name",
          "type": "string"
        },
        {
          "internalType": "uint256",
          "name": "quantity",
          "type": "uint256"
        }
      ],
      "name": "updateItem",
      "outputs": [],
      "stateMutability": "nonpayable",
      "type": "function"
    },
    {
      "inputs": [
        {
          "internalType": "uint256",
          "name": "id",
          "type": "uint256"
        }
      ],
      "name": "deleteItem",
      "outputs": [],
      "stateMutability": "nonpayable",
      "type": "function"
    }
  ],
  "bytecode": "0x60806040526001805534801561001457600080fd5b50610c73806100246000396000f3fe608060405234801561001057600080fd5b506004361061004c5760003560e01c806353b200e514610051578063654fc8331461006d578063838b96bd146100895780638c551742146100ba575b600080fd5b61006b60048036038101906100669190610697565b6100d6565b005b61008760048036038101906100829190610706565b6101c9565b005b6100a3600480360381019061009e9190610706565b6102a2565b6040516100b19291906107c1565b60405180910390f35b6100d460048036038101906100cf91906107f1565b61041a565b005b60005b6000805490508110156101885783600082815481106100fb576100fa61084d565b5b906000526020600020906003020160000154036101755782600082815481106101275761012661084d565b5b906000526020600020906003020160010190816101449190610a88565b50816000828154811061015a5761015961084d565b5b906000526020600020906003020160020181905550506101c4565b808061018090610b89565b9150506100d9565b506040517f08c379a00000000000000000000000000000000000000000000000000000000081526004016101bb90610c1d565b60405180910390fd5b505050565b60005b6000805490508110156102635781600082815481106101ee576101ed61084d565b5b9060005260206000209060030201600001540361025057600081815481106102195761021861084d565b5b906000526020600020906003020160008082016000905560018201600061024091906104aa565b600282016000905550505061029f565b808061025b90610b89565b9150506101cc565b506040517f08c379a000000000000000000000000000000000000000000000000000000000815260040161029690610c1d565b60405180910390fd5b50565b6060600080600090505b6000805490508110156103d95783600082815481106102ce576102cd61084d565b5b906000526020600020906003020160000154036103c657600081815481106102f9576102f861084d565b5b90600052602060002090600302016001016000828154811061031e5761031d61084d565b5b90600052602060002090600302016002015481805461033c906108ab565b80601f0160208091040260200160405190810160405280929190818152602001828054610368906108ab565b80156103b55780601f1061038a576101008083540402835291602001916103b5565b820191906000526020600020905b81548152906001019060200180831161039857829003601f168201915b505050505091509250925050610415565b80806103d190610b89565b9150506102ac565b506040517f08c379a000000000000000000000000000000000000000000000000000000000815260040161040c90610c1d565b60405180910390fd5b915091565b6000604051806060016040528060015481526020018481526020018381525090806001815401808255809150506001900390600052602060002090600302016000909190919091506000820151816000015560208201518160010190816104819190610a88565b50604082015181600201555050600160008154809291906104a190610b89565b91905055505050565b5080546104b6906108ab565b6000825580601f106104c857506104e7565b601f0160209004906000526020600020908101906104e691906104ea565b5b50565b5b808211156105035760008160009055506001016104eb565b5090565b6000604051905090565b600080fd5b600080fd5b6000819050919050565b61052e8161051b565b811461053957600080fd5b50565b60008135905061054b81610525565b92915050565b600080fd5b600080fd5b6000601f19601f8301169050919050565b7f4e487b7100000000000000000000000000000000000000000000000000000000600052604160045260246000fd5b6105a48261055b565b810181811067ffffffffffffffff821117156105c3576105c261056c565b5b80604052505050565b60006105d6610507565b90506105e2828261059b565b919050565b600067ffffffffffffffff8211156106025761060161056c565b5b61060b8261055b565b9050602081019050919050565b82818337600083830152505050565b600061063a610635846105e7565b6105cc565b90508281526020810184848401111561065657610655610556565b5b610661848285610618565b509392505050565b600082601f83011261067e5761067d610551565b5b813561068e848260208601610627565b91505092915050565b6000806000606084860312156106b0576106af610511565b5b60006106be8682870161053c565b935050602084013567ffffffffffffffff8111156106df576106de610516565b5b6106eb86828701610669565b92505060406106fc8682870161053c565b9150509250925092565b60006020828403121561071c5761071b610511565b5b600061072a8482850161053c565b91505092915050565b600081519050919050565b600082825260208201905092915050565b60005b8381101561076d578082015181840152602081019050610752565b60008484015250505050565b600061078482610733565b61078e818561073e565b935061079e81856020860161074f565b6107a78161055b565b840191505092915050565b6107bb8161051b565b82525050565b600060408201905081810360008301526107db8185610779565b90506107ea60208301846107b2565b9392505050565b6000806040838503121561080857610807610511565b5b600083013567ffffffffffffffff81111561082657610825610516565b5b61083285828601610669565b92505060206108438582860161053c565b9150509250929050565b7f4e487b7100000000000000000000000000000000000000000000000000000000600052603260045260246000fd5b7f4e487b7100000000000000000000000000000000000000000000000000000000600052602260045260246000fd5b600060028204905060018216806108c357607f821691505b6020821081036108d6576108d561087c565b5b50919050565b60008190508160005260206000209050919050565b60006020601f8301049050919050565b600082821b905092915050565b60006008830261093e7fffffffffffffffffffffffffffffffffffffffffffffffffffffffffffffffff82610901565b6109488683610901565b95508019841693508086168417925050509392505050565b6000819050919050565b600061098561098061097b8461051b565b610960565b61051b565b9050919050565b6000819050919050565b61099f8361096a565b6109b36109ab8261098c565b84845461090e565b825550505050565b600090565b6109c86109bb565b6109d3818484610996565b505050565b5b818110156109f7576109ec6000826109c0565b6001810190506109d9565b5050565b601f821115610a3c57610a0d816108dc565b610a16846108f1565b81016020851015610a25578190505b610a39610a31856108f1565b8301826109d8565b50505b505050565b600082821c905092915050565b6000610a5f60001984600802610a41565b1980831691505092915050565b6000610a788383610a4e565b9150826002028217905092915050565b610a9182610733565b67ffffffffffffffff811115610aaa57610aa961056c565b5b610ab482546108ab565b610abf8282856109fb565b600060209050601f831160018114610af25760008415610ae0578287015190505b610aea8582610a6c565b865550610b52565b601f198416610b00866108dc565b60005b82811015610b2857848901518255600182019150602085019450602081019050610b03565b86831015610b455784890151610b41601f891682610a4e565b8355505b6001600288020188555050505b505050505050565b7f4e487b7100000000000000000000000000000000000000000000000000000000600052601160045260246000fd5b6000610b948261051b565b91507fffffffffffffffffffffffffffffffffffffffffffffffffffffffffffffffff8203610bc657610bc5610b5a565b5b600182019050919050565b7f4974656d206e6f7420666f756e64000000000000000000000000000000000000600082015250565b6000610c07600e8361073e565b9150610c1282610bd1565b602082019050919050565b60006020820190508181036000830152610c3681610bfa565b905091905056fea2646970667358221220f98eea1aad604232f905f337fcb9ad30a3125860d5fe2a91c5c0d8e7925c114064736f6c63430008120033",
  "immutableReferences": {},
  "source": "// SPDX-License-Identifier: MIT\npragma solidity ^0.8.18;\n\ncontract Crud {\n    struct Item {\n        uint id;\n        string name;\n        uint quantity;\n    }\n\n    Item[] private items;\n    uint private nextId = 1;\n\n    function createItem(string memory name, uint quantity) public {\n        items.push(Item(nextId, name, quantity));\n        nextId++;\n    }\n\n    function readItem(uint id) public view returns (string memory, uint) {\n        for (uint i = 0; i < items.length; i++) {\n            if (items[i].id == id) {\n                return (items[i].name, items[i].quantity);\n            }\n        }\n        revert(\"Item not found\");\n    }\n\n    function updateItem(uint id, string memory name, uint quantity) public {\n        for (uint i = 0; i < items.length; i++) {\n            if (items[i].id == id) {\n                items[i].name = name;\n                items[i].quantity = quantity;\n                return;\n            }\n        }\n        revert(\"Item not found\");\n    }\n\n    function deleteItem(uint id) public {\n        for (uint i = 0; i < items.length; i++) {\n            if (items[i].id == id) {\n                delete items[i];\n                return;\n            }\n        }\n        revert(\"Item not found\");\n    }\n}\n",
  "sourcePath": "/home/mahin/Desktop/trekker/src/contracts/Crud.sol",
  "compiler": {
    "name": "solc",
    "version": "0.8.18+commit.87f61d96.Emscripten.clang"
  },
  "schemaVersion": "3.4.12",
  "updatedAt": "2023-03-02T16:32:12.538Z",
  "networkType": "ethereum",
  "devdoc": {
    "kind": "dev",
    "methods": {},
    "version": 1
  },
  "userdoc": {
    "kind": "user",
    "methods": {},
    "version": 1
  }
}