{
  "contractName": "Medicine",
  "abi": [
    {
      "inputs": [
        {
          "internalType": "address",
          "name": "manufacturerKey",
          "type": "address"
        },
        {
          "internalType": "string",
          "name": "manufacturerName",
          "type": "string"
        },
        {
          "internalType": "string",
          "name": "medicineName",
          "type": "string"
        },
        {
          "internalType": "string",
          "name": "batchNo",
          "type": "string"
        },
        {
          "internalType": "string",
          "name": "dosage",
          "type": "string"
        },
        {
          "internalType": "string",
          "name": "price",
          "type": "string"
        },
        {
          "internalType": "string",
          "name": "mftDate",
          "type": "string"
        },
        {
          "internalType": "string",
          "name": "expDate",
          "type": "string"
        }
      ],
      "name": "createMedicine",
      "outputs": [],
      "stateMutability": "nonpayable",
      "type": "function"
    },
    {
      "inputs": [
        {
          "internalType": "string",
          "name": "medicineName",
          "type": "string"
        },
        {
          "internalType": "string",
          "name": "batchNo",
          "type": "string"
        }
      ],
      "name": "getMedicineDetails",
      "outputs": [
        {
          "internalType": "string",
          "name": "manufacturerName",
          "type": "string"
        },
        {
          "internalType": "string",
          "name": "dosage",
          "type": "string"
        },
        {
          "internalType": "string",
          "name": "price",
          "type": "string"
        },
        {
          "internalType": "string",
          "name": "mftDate",
          "type": "string"
        },
        {
          "internalType": "string",
          "name": "expDate",
          "type": "string"
        }
      ],
      "stateMutability": "view",
      "type": "function",
      "constant": true
    },
    {
      "inputs": [
        {
          "internalType": "string",
          "name": "medicineName",
          "type": "string"
        },
        {
          "internalType": "string",
          "name": "batchNo",
          "type": "string"
        }
      ],
      "name": "getBatchNo",
      "outputs": [
        {
          "internalType": "bool",
          "name": "success",
          "type": "bool"
        }
      ],
      "stateMutability": "view",
      "type": "function",
      "constant": true
    }
  ],
  "bytecode": "0x608060405234801561001057600080fd5b506111a1806100206000396000f3fe608060405234801561001057600080fd5b50600436106100415760003560e01c80636150b9da14610046578063d84aef201461007a578063dd0467c8146100aa575b600080fd5b610060600480360381019061005b9190610980565b6100c6565b604051610071959493929190610a77565b60405180910390f35b610094600480360381019061008f9190610980565b61059b565b6040516100a19190610b08565b60405180910390f35b6100c460048036038101906100bf9190610b81565b6106be565b005b60608060608060606000808054905081101561058f57876040516020016100ed9190610d37565b604051602081830303815290604052805190602001206000828154811061011757610116610d4e565b5b90600052602060002090600802016002016040516020016101389190610e75565b604051602081830303815290604052805190602001201480156101ca5750866040516020016101679190610d37565b604051602081830303815290604052805190602001206000828154811061019157610190610d4e565b5b90600052602060002090600802016003016040516020016101b29190610e75565b60405160208183030381529060405280519060200120145b1561055457600081815481106101e3576101e2610d4e565b5b90600052602060002090600802016001016000828154811061020857610207610d4e565b5b90600052602060002090600802016004016000838154811061022d5761022c610d4e565b5b90600052602060002090600802016005016000848154811061025257610251610d4e565b5b90600052602060002090600802016006016000858154811061027757610276610d4e565b5b906000526020600020906008020160070184805461029490610dac565b80601f01602080910402602001604051908101604052809291908181526020018280546102c090610dac565b801561030d5780601f106102e25761010080835404028352916020019161030d565b820191906000526020600020905b8154815290600101906020018083116102f057829003601f168201915b5050505050945083805461032090610dac565b80601f016020809104026020016040519081016040528092919081815260200182805461034c90610dac565b80156103995780601f1061036e57610100808354040283529160200191610399565b820191906000526020600020905b81548152906001019060200180831161037c57829003601f168201915b505050505093508280546103ac90610dac565b80601f01602080910402602001604051908101604052809291908181526020018280546103d890610dac565b80156104255780601f106103fa57610100808354040283529160200191610425565b820191906000526020600020905b81548152906001019060200180831161040857829003601f168201915b5050505050925081805461043890610dac565b80601f016020809104026020016040519081016040528092919081815260200182805461046490610dac565b80156104b15780601f10610486576101008083540402835291602001916104b1565b820191906000526020600020905b81548152906001019060200180831161049457829003601f168201915b505050505091508080546104c490610dac565b80601f01602080910402602001604051908101604052809291908181526020018280546104f090610dac565b801561053d5780601f106105125761010080835404028352916020019161053d565b820191906000526020600020905b81548152906001019060200180831161052057829003601f168201915b505050505090509550955095509550955050610591565b6040517f08c379a000000000000000000000000000000000000000000000000000000000815260040161058690610ed8565b60405180910390fd5b505b9295509295909350565b600080600090506000805490508110156106b657836040516020016105c09190610d37565b60405160208183030381529060405280519060200120600082815481106105ea576105e9610d4e565b5b906000526020600020906008020160020160405160200161060b9190610e75565b6040516020818303038152906040528051906020012014801561069d57508260405160200161063a9190610d37565b604051602081830303815290604052805190602001206000828154811061066457610663610d4e565b5b90600052602060002090600802016003016040516020016106859190610e75565b60405160208183030381529060405280519060200120145b156106ac5760019150506106b8565b60009150506106b8565b505b92915050565b60006040518061010001604052808a73ffffffffffffffffffffffffffffffffffffffff16815260200189815260200188815260200187815260200186815260200185815260200184815260200183815250908060018154018082558091505060019003906000526020600020906008020160009091909190915060008201518160000160006101000a81548173ffffffffffffffffffffffffffffffffffffffff021916908373ffffffffffffffffffffffffffffffffffffffff16021790555060208201518160010190816107959190611099565b5060408201518160020190816107ab9190611099565b5060608201518160030190816107c19190611099565b5060808201518160040190816107d79190611099565b5060a08201518160050190816107ed9190611099565b5060c08201518160060190816108039190611099565b5060e08201518160070190816108199190611099565b5050505050505050505050565b6000604051905090565b600080fd5b600080fd5b600080fd5b600080fd5b6000601f19601f8301169050919050565b7f4e487b7100000000000000000000000000000000000000000000000000000000600052604160045260246000fd5b61088d82610844565b810181811067ffffffffffffffff821117156108ac576108ab610855565b5b80604052505050565b60006108bf610826565b90506108cb8282610884565b919050565b600067ffffffffffffffff8211156108eb576108ea610855565b5b6108f482610844565b9050602081019050919050565b82818337600083830152505050565b600061092361091e846108d0565b6108b5565b90508281526020810184848401111561093f5761093e61083f565b5b61094a848285610901565b509392505050565b600082601f8301126109675761096661083a565b5b8135610977848260208601610910565b91505092915050565b6000806040838503121561099757610996610830565b5b600083013567ffffffffffffffff8111156109b5576109b4610835565b5b6109c185828601610952565b925050602083013567ffffffffffffffff8111156109e2576109e1610835565b5b6109ee85828601610952565b9150509250929050565b600081519050919050565b600082825260208201905092915050565b60005b83811015610a32578082015181840152602081019050610a17565b60008484015250505050565b6000610a49826109f8565b610a538185610a03565b9350610a63818560208601610a14565b610a6c81610844565b840191505092915050565b600060a0820190508181036000830152610a918188610a3e565b90508181036020830152610aa58187610a3e565b90508181036040830152610ab98186610a3e565b90508181036060830152610acd8185610a3e565b90508181036080830152610ae18184610a3e565b90509695505050505050565b60008115159050919050565b610b0281610aed565b82525050565b6000602082019050610b1d6000830184610af9565b92915050565b600073ffffffffffffffffffffffffffffffffffffffff82169050919050565b6000610b4e82610b23565b9050919050565b610b5e81610b43565b8114610b6957600080fd5b50565b600081359050610b7b81610b55565b92915050565b600080600080600080600080610100898b031215610ba257610ba1610830565b5b6000610bb08b828c01610b6c565b985050602089013567ffffffffffffffff811115610bd157610bd0610835565b5b610bdd8b828c01610952565b975050604089013567ffffffffffffffff811115610bfe57610bfd610835565b5b610c0a8b828c01610952565b965050606089013567ffffffffffffffff811115610c2b57610c2a610835565b5b610c378b828c01610952565b955050608089013567ffffffffffffffff811115610c5857610c57610835565b5b610c648b828c01610952565b94505060a089013567ffffffffffffffff811115610c8557610c84610835565b5b610c918b828c01610952565b93505060c089013567ffffffffffffffff811115610cb257610cb1610835565b5b610cbe8b828c01610952565b92505060e089013567ffffffffffffffff811115610cdf57610cde610835565b5b610ceb8b828c01610952565b9150509295985092959890939650565b600081905092915050565b6000610d11826109f8565b610d1b8185610cfb565b9350610d2b818560208601610a14565b80840191505092915050565b6000610d438284610d06565b915081905092915050565b7f4e487b7100000000000000000000000000000000000000000000000000000000600052603260045260246000fd5b7f4e487b7100000000000000000000000000000000000000000000000000000000600052602260045260246000fd5b60006002820490506001821680610dc457607f821691505b602082108103610dd757610dd6610d7d565b5b50919050565b60008190508160005260206000209050919050565b60008154610dff81610dac565b610e098186610cfb565b94506001821660008114610e245760018114610e3957610e6c565b60ff1983168652811515820286019350610e6c565b610e4285610ddd565b60005b83811015610e6457815481890152600182019150602081019050610e45565b838801955050505b50505092915050565b6000610e818284610df2565b915081905092915050565b7f55736572206e6f7420666f756e64000000000000000000000000000000000000600082015250565b6000610ec2600e83610a03565b9150610ecd82610e8c565b602082019050919050565b60006020820190508181036000830152610ef181610eb5565b9050919050565b6000819050919050565b60006020601f8301049050919050565b600082821b905092915050565b600060088302610f4f7fffffffffffffffffffffffffffffffffffffffffffffffffffffffffffffffff82610f12565b610f598683610f12565b95508019841693508086168417925050509392505050565b6000819050919050565b6000610f96610f91610f8c84610ef8565b610f71565b610ef8565b9050919050565b6000819050919050565b610fb083610f7b565b610fc4610fbc82610f9d565b848454610f1f565b825550505050565b600090565b610fd9610fcc565b610fe4818484610fa7565b505050565b5b8181101561100857610ffd600082610fd1565b600181019050610fea565b5050565b601f82111561104d5761101e81610ddd565b61102784610f02565b81016020851015611036578190505b61104a61104285610f02565b830182610fe9565b50505b505050565b600082821c905092915050565b600061107060001984600802611052565b1980831691505092915050565b6000611089838361105f565b9150826002028217905092915050565b6110a2826109f8565b67ffffffffffffffff8111156110bb576110ba610855565b5b6110c58254610dac565b6110d082828561100c565b600060209050601f83116001811461110357600084156110f1578287015190505b6110fb858261107d565b865550611163565b601f19841661111186610ddd565b60005b8281101561113957848901518255600182019150602085019450602081019050611114565b868310156111565784890151611152601f89168261105f565b8355505b6001600288020188555050505b50505050505056fea2646970667358221220796c7f6ec2a81f7cd1a8bb5fbb51adafcb08a760d9cd606565020356da3d772a64736f6c63430008120033",
  "immutableReferences": {},
  "source": "// SPDX-License-Identifier: MIT\npragma solidity ^0.8.18;\n\ncontract Medicine{\n    struct MedicineItem{\n        address manufacturerKey;\n        string manufacturerName;\n        string medicineName;\n        string batchNo;\n        string dosage;\n        string price;\n        string mftDate;\n        string expDate; \n    }\n    MedicineItem[] private medicines;\n\n    function createMedicine(\n        address manufacturerKey,\n        string memory manufacturerName,\n        string memory medicineName,\n        string memory batchNo,\n        string memory dosage,\n        string memory price,\n        string memory mftDate,\n        string memory expDate) \n        public{\n\n            medicines.push(MedicineItem(manufacturerKey,manufacturerName,medicineName,batchNo,dosage,price,mftDate,expDate));\n        }\n    function getMedicineDetails(\n    string memory medicineName,\n    string memory batchNo) \n    public view returns (\n    string memory manufacturerName,\n    string memory dosage,\n    string memory price,\n    string memory mftDate,\n    string memory expDate){\n\n        for(uint i=0;i<medicines.length;i++){\n            if (keccak256(abi.encodePacked(medicines[i].medicineName)) == keccak256(abi.encodePacked(medicineName))\n                && keccak256(abi.encodePacked(medicines[i].batchNo)) == keccak256(abi.encodePacked(batchNo))) {\n                return (medicines[i].manufacturerName, medicines[i].dosage,medicines[i].price,medicines[i].mftDate,medicines[i].expDate);\n            }\n\n            revert(\"User not found\");\n\n        }\n\n\n    }\n\n\n\n\n    function getBatchNo(string memory medicineName,string memory batchNo) public view returns(bool success){\n\n        for(uint i=0;i< medicines.length;i++){\n            if (keccak256(abi.encodePacked(medicines[i].medicineName)) == keccak256(abi.encodePacked(medicineName))\n                     && keccak256(abi.encodePacked(medicines[i].batchNo)) == keccak256(abi.encodePacked(batchNo))) {\n                return true;\n            }\n\n           else{\n            return false;\n           }\n\n        }\n\n    }\n\n\n}",
  "sourcePath": "/home/mahin/Desktop/trekker/src/contracts/Medicine.sol",
  "compiler": {
    "name": "solc",
    "version": "0.8.18+commit.87f61d96.Emscripten.clang"
  },
  "schemaVersion": "3.4.12",
  "updatedAt": "2023-03-13T07:43:46.355Z",
  "networkType": "ethereum",
  "devdoc": {
    "kind": "dev",
    "methods": {},
    "version": 1
  },
  "userdoc": {
    "kind": "user",
    "methods": {},
    "version": 1
  }
}