{
  "contractName": "Medicine",
  "abi": [
    {
      "inputs": [
        {
          "internalType": "string",
          "name": "manufacturerName",
          "type": "string"
        },
        {
          "internalType": "string",
          "name": "medicineName",
          "type": "string"
        },
        {
          "internalType": "string",
          "name": "batchNo",
          "type": "string"
        },
        {
          "internalType": "string",
          "name": "dosage",
          "type": "string"
        },
        {
          "internalType": "string",
          "name": "price",
          "type": "string"
        },
        {
          "internalType": "string",
          "name": "mftDate",
          "type": "string"
        },
        {
          "internalType": "string",
          "name": "expDate",
          "type": "string"
        }
      ],
      "name": "createMedicine",
      "outputs": [],
      "stateMutability": "nonpayable",
      "type": "function"
    },
    {
      "inputs": [
        {
          "internalType": "string",
          "name": "medicineName",
          "type": "string"
        },
        {
          "internalType": "string",
          "name": "batchNo",
          "type": "string"
        }
      ],
      "name": "getMedicineDetails",
      "outputs": [
        {
          "internalType": "string",
          "name": "manufacturerName",
          "type": "string"
        },
        {
          "internalType": "string",
          "name": "dosage",
          "type": "string"
        },
        {
          "internalType": "string",
          "name": "price",
          "type": "string"
        },
        {
          "internalType": "string",
          "name": "mftDate",
          "type": "string"
        },
        {
          "internalType": "string",
          "name": "expDate",
          "type": "string"
        }
      ],
      "stateMutability": "view",
      "type": "function",
      "constant": true
    },
    {
      "inputs": [
        {
          "internalType": "string",
          "name": "medicineName",
          "type": "string"
        }
      ],
      "name": "getMedicineName",
      "outputs": [
        {
          "internalType": "bool",
          "name": "",
          "type": "bool"
        }
      ],
      "stateMutability": "view",
      "type": "function",
      "constant": true
    },
    {
      "inputs": [
        {
          "internalType": "string",
          "name": "batchNo",
          "type": "string"
        }
      ],
      "name": "getBatchNo",
      "outputs": [
        {
          "internalType": "bool",
          "name": "",
          "type": "bool"
        }
      ],
      "stateMutability": "view",
      "type": "function",
      "constant": true
    }
  ],
  "bytecode": "0x608060405234801561001057600080fd5b50611177806100206000396000f3fe608060405234801561001057600080fd5b506004361061004c5760003560e01c8063202a1017146100515780636150b9da146100815780637254f282146100b5578063821fdb29146100d1575b600080fd5b61006b6004803603810190610066919061097f565b610101565b60405161007891906109e3565b60405180910390f35b61009b600480360381019061009691906109fe565b6101a7565b6040516100ac959493929190610af5565b60405180910390f35b6100cf60048036038101906100ca9190610b6b565b61067c565b005b6100eb60048036038101906100e6919061097f565b61077f565b6040516100f891906109e3565b60405180910390f35b600080600090506000805490508110156101a057826040516020016101269190610d0d565b60405160208183030381529060405280519060200120600082815481106101505761014f610d24565b5b90600052602060002090600702016002016040516020016101719190610e4b565b60405160208183030381529060405280519060200120036101965760019150506101a2565b60009150506101a2565b505b919050565b60608060608060606000808054905081101561067057876040516020016101ce9190610d0d565b60405160208183030381529060405280519060200120600082815481106101f8576101f7610d24565b5b90600052602060002090600702016001016040516020016102199190610e4b565b604051602081830303815290604052805190602001201480156102ab5750866040516020016102489190610d0d565b604051602081830303815290604052805190602001206000828154811061027257610271610d24565b5b90600052602060002090600702016002016040516020016102939190610e4b565b60405160208183030381529060405280519060200120145b1561063557600081815481106102c4576102c3610d24565b5b9060005260206000209060070201600001600082815481106102e9576102e8610d24565b5b90600052602060002090600702016003016000838154811061030e5761030d610d24565b5b90600052602060002090600702016004016000848154811061033357610332610d24565b5b90600052602060002090600702016005016000858154811061035857610357610d24565b5b906000526020600020906007020160060184805461037590610d82565b80601f01602080910402602001604051908101604052809291908181526020018280546103a190610d82565b80156103ee5780601f106103c3576101008083540402835291602001916103ee565b820191906000526020600020905b8154815290600101906020018083116103d157829003601f168201915b5050505050945083805461040190610d82565b80601f016020809104026020016040519081016040528092919081815260200182805461042d90610d82565b801561047a5780601f1061044f5761010080835404028352916020019161047a565b820191906000526020600020905b81548152906001019060200180831161045d57829003601f168201915b5050505050935082805461048d90610d82565b80601f01602080910402602001604051908101604052809291908181526020018280546104b990610d82565b80156105065780601f106104db57610100808354040283529160200191610506565b820191906000526020600020905b8154815290600101906020018083116104e957829003601f168201915b5050505050925081805461051990610d82565b80601f016020809104026020016040519081016040528092919081815260200182805461054590610d82565b80156105925780601f1061056757610100808354040283529160200191610592565b820191906000526020600020905b81548152906001019060200180831161057557829003601f168201915b505050505091508080546105a590610d82565b80601f01602080910402602001604051908101604052809291908181526020018280546105d190610d82565b801561061e5780601f106105f35761010080835404028352916020019161061e565b820191906000526020600020905b81548152906001019060200180831161060157829003601f168201915b505050505090509550955095509550955050610672565b6040517f08c379a000000000000000000000000000000000000000000000000000000000815260040161066790610eb8565b60405180910390fd5b505b9295509295909350565b60006040518060e0016040528089815260200188815260200187815260200186815260200185815260200184815260200183815250908060018154018082558091505060019003906000526020600020906007020160009091909190915060008201518160000190816106ef919061106f565b506020820151816001019081610705919061106f565b50604082015181600201908161071b919061106f565b506060820151816003019081610731919061106f565b506080820151816004019081610747919061106f565b5060a082015181600501908161075d919061106f565b5060c0820151816006019081610773919061106f565b50505050505050505050565b6000806000905060008054905081101561081e57826040516020016107a49190610d0d565b60405160208183030381529060405280519060200120600082815481106107ce576107cd610d24565b5b90600052602060002090600702016001016040516020016107ef9190610e4b565b6040516020818303038152906040528051906020012003610814576001915050610820565b6000915050610820565b505b919050565b6000604051905090565b600080fd5b600080fd5b600080fd5b600080fd5b6000601f19601f8301169050919050565b7f4e487b7100000000000000000000000000000000000000000000000000000000600052604160045260246000fd5b61088c82610843565b810181811067ffffffffffffffff821117156108ab576108aa610854565b5b80604052505050565b60006108be610825565b90506108ca8282610883565b919050565b600067ffffffffffffffff8211156108ea576108e9610854565b5b6108f382610843565b9050602081019050919050565b82818337600083830152505050565b600061092261091d846108cf565b6108b4565b90508281526020810184848401111561093e5761093d61083e565b5b610949848285610900565b509392505050565b600082601f83011261096657610965610839565b5b813561097684826020860161090f565b91505092915050565b6000602082840312156109955761099461082f565b5b600082013567ffffffffffffffff8111156109b3576109b2610834565b5b6109bf84828501610951565b91505092915050565b60008115159050919050565b6109dd816109c8565b82525050565b60006020820190506109f860008301846109d4565b92915050565b60008060408385031215610a1557610a1461082f565b5b600083013567ffffffffffffffff811115610a3357610a32610834565b5b610a3f85828601610951565b925050602083013567ffffffffffffffff811115610a6057610a5f610834565b5b610a6c85828601610951565b9150509250929050565b600081519050919050565b600082825260208201905092915050565b60005b83811015610ab0578082015181840152602081019050610a95565b60008484015250505050565b6000610ac782610a76565b610ad18185610a81565b9350610ae1818560208601610a92565b610aea81610843565b840191505092915050565b600060a0820190508181036000830152610b0f8188610abc565b90508181036020830152610b238187610abc565b90508181036040830152610b378186610abc565b90508181036060830152610b4b8185610abc565b90508181036080830152610b5f8184610abc565b90509695505050505050565b600080600080600080600060e0888a031215610b8a57610b8961082f565b5b600088013567ffffffffffffffff811115610ba857610ba7610834565b5b610bb48a828b01610951565b975050602088013567ffffffffffffffff811115610bd557610bd4610834565b5b610be18a828b01610951565b965050604088013567ffffffffffffffff811115610c0257610c01610834565b5b610c0e8a828b01610951565b955050606088013567ffffffffffffffff811115610c2f57610c2e610834565b5b610c3b8a828b01610951565b945050608088013567ffffffffffffffff811115610c5c57610c5b610834565b5b610c688a828b01610951565b93505060a088013567ffffffffffffffff811115610c8957610c88610834565b5b610c958a828b01610951565b92505060c088013567ffffffffffffffff811115610cb657610cb5610834565b5b610cc28a828b01610951565b91505092959891949750929550565b600081905092915050565b6000610ce782610a76565b610cf18185610cd1565b9350610d01818560208601610a92565b80840191505092915050565b6000610d198284610cdc565b915081905092915050565b7f4e487b7100000000000000000000000000000000000000000000000000000000600052603260045260246000fd5b7f4e487b7100000000000000000000000000000000000000000000000000000000600052602260045260246000fd5b60006002820490506001821680610d9a57607f821691505b602082108103610dad57610dac610d53565b5b50919050565b60008190508160005260206000209050919050565b60008154610dd581610d82565b610ddf8186610cd1565b94506001821660008114610dfa5760018114610e0f57610e42565b60ff1983168652811515820286019350610e42565b610e1885610db3565b60005b83811015610e3a57815481890152600182019150602081019050610e1b565b838801955050505b50505092915050565b6000610e578284610dc8565b915081905092915050565b6000819050919050565b7f55736572206e6f7420666f756e64000000000000000000000000000000000000600082015250565b6000610ea2600e83610a81565b9150610ead82610e6c565b602082019050919050565b60006020820190508181036000830152610ed181610e95565b9050919050565b60006020601f8301049050919050565b600082821b905092915050565b600060088302610f257fffffffffffffffffffffffffffffffffffffffffffffffffffffffffffffffff82610ee8565b610f2f8683610ee8565b95508019841693508086168417925050509392505050565b6000819050919050565b6000610f6c610f67610f6284610e62565b610f47565b610e62565b9050919050565b6000819050919050565b610f8683610f51565b610f9a610f9282610f73565b848454610ef5565b825550505050565b600090565b610faf610fa2565b610fba818484610f7d565b505050565b5b81811015610fde57610fd3600082610fa7565b600181019050610fc0565b5050565b601f82111561102357610ff481610db3565b610ffd84610ed8565b8101602085101561100c578190505b61102061101885610ed8565b830182610fbf565b50505b505050565b600082821c905092915050565b600061104660001984600802611028565b1980831691505092915050565b600061105f8383611035565b9150826002028217905092915050565b61107882610a76565b67ffffffffffffffff81111561109157611090610854565b5b61109b8254610d82565b6110a6828285610fe2565b600060209050601f8311600181146110d957600084156110c7578287015190505b6110d18582611053565b865550611139565b601f1984166110e786610db3565b60005b8281101561110f578489015182556001820191506020850194506020810190506110ea565b8683101561112c5784890151611128601f891682611035565b8355505b6001600288020188555050505b50505050505056fea264697066735822122096f7b3cb657eb0ece89dcf092bca8378be4ed073a325c3451a5854837487de7864736f6c63430008120033",
  "immutableReferences": {},
  "source": "// SPDX-License-Identifier: MIT\npragma solidity ^0.8.18;\n\ncontract Medicine{\n    struct MedicineItem{\n        string manufacturerName;\n        string medicineName;\n        string batchNo;\n        string dosage;\n        string price;\n        string mftDate;\n        string expDate; \n    }\n    MedicineItem[] private medicines;\n\n    function createMedicine(\n        string memory manufacturerName,\n        string memory medicineName,\n        string memory batchNo,\n        string memory dosage,\n        string memory price,\n        string memory mftDate,\n        string memory expDate) \n        public{\n\n            medicines.push(MedicineItem(manufacturerName,medicineName,batchNo,dosage,price,mftDate,expDate));\n        }\n    function getMedicineDetails(\n        string memory medicineName,\n        string memory batchNo) \n        public view returns (\n            string memory manufacturerName,\n            string memory dosage,\n            string memory price,\n            string memory mftDate,\n            string memory expDate){\n\n                for(uint i=0; i < medicines.length; i++){\n                    if (keccak256(abi.encodePacked(medicines[i].medicineName)) == keccak256(abi.encodePacked(medicineName))\n                        && keccak256(abi.encodePacked(medicines[i].batchNo)) == keccak256(abi.encodePacked(batchNo))) {\n                        return (medicines[i].manufacturerName, medicines[i].dosage,medicines[i].price,medicines[i].mftDate,medicines[i].expDate);\n                    }\n\n                    revert(\"User not found\");\n\n                }\n\n\n            }\n\n    function getMedicineName(string memory medicineName) public view returns(bool){\n\n        for(uint i=0; i < medicines.length; i++){\n            if (keccak256(abi.encodePacked(medicines[i].medicineName)) == keccak256(abi.encodePacked(medicineName))) {\n                return true;\n            }\n\n           else{\n            return false;\n           }\n\n        }\n\n    }\n\n\n    function getBatchNo(string memory batchNo) public view returns(bool){\n\n        for(uint i=0;i < medicines.length; i++){\n            if (keccak256(abi.encodePacked(medicines[i].batchNo)) == keccak256(abi.encodePacked(batchNo))) {\n                return true;\n            }\n\n           else{\n            return false;\n           }\n\n        }\n\n    }\n\n\n}",
  "sourcePath": "/home/mahin/Desktop/trekker/src/contracts/Medicine.sol",
  "compiler": {
    "name": "solc",
    "version": "0.8.18+commit.87f61d96.Emscripten.clang"
  },
  "schemaVersion": "3.4.12",
  "updatedAt": "2023-03-03T20:41:19.941Z",
  "networkType": "ethereum",
  "devdoc": {
    "kind": "dev",
    "methods": {},
    "version": 1
  },
  "userdoc": {
    "kind": "user",
    "methods": {},
    "version": 1
  }
}