{
  "contractName": "Transaction",
  "abi": [
    {
      "inputs": [
        {
          "internalType": "string",
          "name": "providerName",
          "type": "string"
        },
        {
          "internalType": "string",
          "name": "receiverName",
          "type": "string"
        },
        {
          "internalType": "string",
          "name": "medicineName",
          "type": "string"
        },
        {
          "internalType": "string",
          "name": "batchNo",
          "type": "string"
        },
        {
          "internalType": "string",
          "name": "deliveryDate",
          "type": "string"
        }
      ],
      "name": "createTransaction",
      "outputs": [],
      "stateMutability": "nonpayable",
      "type": "function"
    },
    {
      "inputs": [
        {
          "internalType": "string",
          "name": "medicineName",
          "type": "string"
        },
        {
          "internalType": "string",
          "name": "batchNo",
          "type": "string"
        }
      ],
      "name": "getTransaction",
      "outputs": [
        {
          "components": [
            {
              "internalType": "string",
              "name": "providerName",
              "type": "string"
            },
            {
              "internalType": "string",
              "name": "receiverName",
              "type": "string"
            },
            {
              "internalType": "string",
              "name": "medicineName",
              "type": "string"
            },
            {
              "internalType": "string",
              "name": "batchNo",
              "type": "string"
            },
            {
              "internalType": "string",
              "name": "deliveryDate",
              "type": "string"
            }
          ],
          "internalType": "struct Transaction.TransactionItem[]",
          "name": "",
          "type": "tuple[]"
        }
      ],
      "stateMutability": "nonpayable",
      "type": "function"
    }
  ],
  "bytecode": "0x608060405234801561001057600080fd5b50611346806100206000396000f3fe608060405234801561001057600080fd5b50600436106100365760003560e01c806357b277011461003b5780636a55fef11461006b575b600080fd5b61005560048036038101906100509190610b21565b610087565b6040516100629190610d6c565b60405180910390f35b61008560048036038101906100809190610d8e565b6108fe565b005b606060005b6000805490508110156105c357836040516020016100aa9190610ed1565b60405160208183030381529060405280519060200120600082815481106100d4576100d3610ee8565b5b90600052602060002090600502016002016040516020016100f5919061100f565b604051602081830303815290604052805190602001201480156101875750826040516020016101249190610ed1565b604051602081830303815290604052805190602001206000828154811061014e5761014d610ee8565b5b906000526020600020906005020160030160405160200161016f919061100f565b60405160208183030381529060405280519060200120145b156105b05760016040518060a00160405280600084815481106101ad576101ac610ee8565b5b906000526020600020906005020160000180546101c990610f46565b80601f01602080910402602001604051908101604052809291908181526020018280546101f590610f46565b80156102425780601f1061021757610100808354040283529160200191610242565b820191906000526020600020905b81548152906001019060200180831161022557829003601f168201915b50505050508152602001600084815481106102605761025f610ee8565b5b9060005260206000209060050201600101805461027c90610f46565b80601f01602080910402602001604051908101604052809291908181526020018280546102a890610f46565b80156102f55780601f106102ca576101008083540402835291602001916102f5565b820191906000526020600020905b8154815290600101906020018083116102d857829003601f168201915b505050505081526020016000848154811061031357610312610ee8565b5b9060005260206000209060050201600201805461032f90610f46565b80601f016020809104026020016040519081016040528092919081815260200182805461035b90610f46565b80156103a85780601f1061037d576101008083540402835291602001916103a8565b820191906000526020600020905b81548152906001019060200180831161038b57829003601f168201915b50505050508152602001600084815481106103c6576103c5610ee8565b5b906000526020600020906005020160030180546103e290610f46565b80601f016020809104026020016040519081016040528092919081815260200182805461040e90610f46565b801561045b5780601f106104305761010080835404028352916020019161045b565b820191906000526020600020905b81548152906001019060200180831161043e57829003601f168201915b505050505081526020016000848154811061047957610478610ee8565b5b9060005260206000209060050201600401805461049590610f46565b80601f01602080910402602001604051908101604052809291908181526020018280546104c190610f46565b801561050e5780601f106104e35761010080835404028352916020019161050e565b820191906000526020600020905b8154815290600101906020018083116104f157829003601f168201915b50505050508152509080600181540180825580915050600190039060005260206000209060050201600090919091909150600082015181600001908161055491906111c7565b50602082015181600101908161056a91906111c7565b50604082015181600201908161058091906111c7565b50606082015181600301908161059691906111c7565b5060808201518160040190816105ac91906111c7565b5050505b80806105bb906112c8565b91505061008c565b506001805480602002602001604051908101604052809291908181526020016000905b828210156108f257838290600052602060002090600502016040518060a001604052908160008201805461061990610f46565b80601f016020809104026020016040519081016040528092919081815260200182805461064590610f46565b80156106925780601f1061066757610100808354040283529160200191610692565b820191906000526020600020905b81548152906001019060200180831161067557829003601f168201915b505050505081526020016001820180546106ab90610f46565b80601f01602080910402602001604051908101604052809291908181526020018280546106d790610f46565b80156107245780601f106106f957610100808354040283529160200191610724565b820191906000526020600020905b81548152906001019060200180831161070757829003601f168201915b5050505050815260200160028201805461073d90610f46565b80601f016020809104026020016040519081016040528092919081815260200182805461076990610f46565b80156107b65780601f1061078b576101008083540402835291602001916107b6565b820191906000526020600020905b81548152906001019060200180831161079957829003601f168201915b505050505081526020016003820180546107cf90610f46565b80601f01602080910402602001604051908101604052809291908181526020018280546107fb90610f46565b80156108485780601f1061081d57610100808354040283529160200191610848565b820191906000526020600020905b81548152906001019060200180831161082b57829003601f168201915b5050505050815260200160048201805461086190610f46565b80601f016020809104026020016040519081016040528092919081815260200182805461088d90610f46565b80156108da5780601f106108af576101008083540402835291602001916108da565b820191906000526020600020905b8154815290600101906020018083116108bd57829003601f168201915b505050505081525050815260200190600101906105e6565b50505050905092915050565b60006040518060a00160405280878152602001868152602001858152602001848152602001838152509080600181540180825580915050600190039060005260206000209060050201600090919091909150600082015181600001908161096591906111c7565b50602082015181600101908161097b91906111c7565b50604082015181600201908161099191906111c7565b5060608201518160030190816109a791906111c7565b5060808201518160040190816109bd91906111c7565b5050505050505050565b6000604051905090565b600080fd5b600080fd5b600080fd5b600080fd5b6000601f19601f8301169050919050565b7f4e487b7100000000000000000000000000000000000000000000000000000000600052604160045260246000fd5b610a2e826109e5565b810181811067ffffffffffffffff82111715610a4d57610a4c6109f6565b5b80604052505050565b6000610a606109c7565b9050610a6c8282610a25565b919050565b600067ffffffffffffffff821115610a8c57610a8b6109f6565b5b610a95826109e5565b9050602081019050919050565b82818337600083830152505050565b6000610ac4610abf84610a71565b610a56565b905082815260208101848484011115610ae057610adf6109e0565b5b610aeb848285610aa2565b509392505050565b600082601f830112610b0857610b076109db565b5b8135610b18848260208601610ab1565b91505092915050565b60008060408385031215610b3857610b376109d1565b5b600083013567ffffffffffffffff811115610b5657610b556109d6565b5b610b6285828601610af3565b925050602083013567ffffffffffffffff811115610b8357610b826109d6565b5b610b8f85828601610af3565b9150509250929050565b600081519050919050565b600082825260208201905092915050565b6000819050602082019050919050565b600081519050919050565b600082825260208201905092915050565b60005b83811015610bff578082015181840152602081019050610be4565b60008484015250505050565b6000610c1682610bc5565b610c208185610bd0565b9350610c30818560208601610be1565b610c39816109e5565b840191505092915050565b600060a0830160008301518482036000860152610c618282610c0b565b91505060208301518482036020860152610c7b8282610c0b565b91505060408301518482036040860152610c958282610c0b565b91505060608301518482036060860152610caf8282610c0b565b91505060808301518482036080860152610cc98282610c0b565b9150508091505092915050565b6000610ce28383610c44565b905092915050565b6000602082019050919050565b6000610d0282610b99565b610d0c8185610ba4565b935083602082028501610d1e85610bb5565b8060005b85811015610d5a5784840389528151610d3b8582610cd6565b9450610d4683610cea565b925060208a01995050600181019050610d22565b50829750879550505050505092915050565b60006020820190508181036000830152610d868184610cf7565b905092915050565b600080600080600060a08688031215610daa57610da96109d1565b5b600086013567ffffffffffffffff811115610dc857610dc76109d6565b5b610dd488828901610af3565b955050602086013567ffffffffffffffff811115610df557610df46109d6565b5b610e0188828901610af3565b945050604086013567ffffffffffffffff811115610e2257610e216109d6565b5b610e2e88828901610af3565b935050606086013567ffffffffffffffff811115610e4f57610e4e6109d6565b5b610e5b88828901610af3565b925050608086013567ffffffffffffffff811115610e7c57610e7b6109d6565b5b610e8888828901610af3565b9150509295509295909350565b600081905092915050565b6000610eab82610bc5565b610eb58185610e95565b9350610ec5818560208601610be1565b80840191505092915050565b6000610edd8284610ea0565b915081905092915050565b7f4e487b7100000000000000000000000000000000000000000000000000000000600052603260045260246000fd5b7f4e487b7100000000000000000000000000000000000000000000000000000000600052602260045260246000fd5b60006002820490506001821680610f5e57607f821691505b602082108103610f7157610f70610f17565b5b50919050565b60008190508160005260206000209050919050565b60008154610f9981610f46565b610fa38186610e95565b94506001821660008114610fbe5760018114610fd357611006565b60ff1983168652811515820286019350611006565b610fdc85610f77565b60005b83811015610ffe57815481890152600182019150602081019050610fdf565b838801955050505b50505092915050565b600061101b8284610f8c565b915081905092915050565b60006020601f8301049050919050565b600082821b905092915050565b6000600883026110737fffffffffffffffffffffffffffffffffffffffffffffffffffffffffffffffff82611036565b61107d8683611036565b95508019841693508086168417925050509392505050565b6000819050919050565b6000819050919050565b60006110c46110bf6110ba84611095565b61109f565b611095565b9050919050565b6000819050919050565b6110de836110a9565b6110f26110ea826110cb565b848454611043565b825550505050565b600090565b6111076110fa565b6111128184846110d5565b505050565b5b818110156111365761112b6000826110ff565b600181019050611118565b5050565b601f82111561117b5761114c81610f77565b61115584611026565b81016020851015611164578190505b61117861117085611026565b830182611117565b50505b505050565b600082821c905092915050565b600061119e60001984600802611180565b1980831691505092915050565b60006111b7838361118d565b9150826002028217905092915050565b6111d082610bc5565b67ffffffffffffffff8111156111e9576111e86109f6565b5b6111f38254610f46565b6111fe82828561113a565b600060209050601f831160018114611231576000841561121f578287015190505b61122985826111ab565b865550611291565b601f19841661123f86610f77565b60005b8281101561126757848901518255600182019150602085019450602081019050611242565b868310156112845784890151611280601f89168261118d565b8355505b6001600288020188555050505b505050505050565b7f4e487b7100000000000000000000000000000000000000000000000000000000600052601160045260246000fd5b60006112d382611095565b91507fffffffffffffffffffffffffffffffffffffffffffffffffffffffffffffffff820361130557611304611299565b5b60018201905091905056fea2646970667358221220461e34b1cf62b8bfab4cf07d3e2d8fca1726f37f78d65f69c26f5c183dc8054264736f6c63430008120033",
  "immutableReferences": {},
  "source": "// SPDX-License-Identifier: MIT\npragma solidity ^0.8.18;\n\ncontract Transaction{\n\n    struct TransactionItem{\n        string providerName;\n        string receiverName;\n        string medicineName;\n        string batchNo;\n        string deliveryDate;\n    }\n\n    TransactionItem[] private  transactions;\n    TransactionItem[] private results;\n\n    function createTransaction(\n        string memory providerName,\n        string memory receiverName,\n        string memory medicineName,\n        string memory batchNo,\n        string memory deliveryDate\n    ) public{\n        transactions.push(TransactionItem(providerName,receiverName,medicineName,batchNo,deliveryDate));\n    }\n    \n    function getTransaction(\n        string memory medicineName,\n        string memory batchNo\n    ) public  returns(\n        TransactionItem[] memory\n    ){\n        for(uint i=0; i< transactions.length; i++){\n            if(keccak256(abi.encodePacked(transactions[i].medicineName)) == keccak256(abi.encodePacked(medicineName))\n            && keccak256(abi.encodePacked(transactions[i].batchNo)) == keccak256(abi.encodePacked(batchNo))){\n\n                results.push(TransactionItem(transactions[i].providerName,transactions[i].receiverName,transactions[i].medicineName,transactions[i].batchNo,transactions[i].deliveryDate));\n\n            }\n        }\n        // if(results.length > 0){\n        //     return results;\n        // }\n        return results;\n        revert(\"No Transaction\");\n    }\n}",
  "sourcePath": "/home/mahin/Desktop/trekker/src/contracts/Transaction.sol",
  "compiler": {
    "name": "solc",
    "version": "0.8.18+commit.87f61d96.Emscripten.clang"
  },
  "schemaVersion": "3.4.12",
  "updatedAt": "2023-03-03T20:41:20.374Z",
  "networkType": "ethereum",
  "devdoc": {
    "kind": "dev",
    "methods": {},
    "version": 1
  },
  "userdoc": {
    "kind": "user",
    "methods": {},
    "version": 1
  }
}