{
  "contractName": "Transaction",
  "abi": [
    {
      "inputs": [
        {
          "internalType": "address",
          "name": "providerKey",
          "type": "address"
        },
        {
          "internalType": "string",
          "name": "providerName",
          "type": "string"
        },
        {
          "internalType": "address",
          "name": "receiverKey",
          "type": "address"
        },
        {
          "internalType": "string",
          "name": "receiverName",
          "type": "string"
        },
        {
          "internalType": "string",
          "name": "medicineName",
          "type": "string"
        },
        {
          "internalType": "string",
          "name": "batchNo",
          "type": "string"
        },
        {
          "internalType": "string",
          "name": "deliveryDate",
          "type": "string"
        }
      ],
      "name": "createTransaction",
      "outputs": [],
      "stateMutability": "nonpayable",
      "type": "function"
    },
    {
      "inputs": [
        {
          "internalType": "string",
          "name": "medicineName",
          "type": "string"
        },
        {
          "internalType": "string",
          "name": "batchNo",
          "type": "string"
        }
      ],
      "name": "getTransaction",
      "outputs": [
        {
          "components": [
            {
              "internalType": "address",
              "name": "providerKey",
              "type": "address"
            },
            {
              "internalType": "string",
              "name": "providerName",
              "type": "string"
            },
            {
              "internalType": "address",
              "name": "receiverKey",
              "type": "address"
            },
            {
              "internalType": "string",
              "name": "receiverName",
              "type": "string"
            },
            {
              "internalType": "string",
              "name": "medicineName",
              "type": "string"
            },
            {
              "internalType": "string",
              "name": "batchNo",
              "type": "string"
            },
            {
              "internalType": "string",
              "name": "deliveryDate",
              "type": "string"
            }
          ],
          "internalType": "struct Transaction.TransactionItem[]",
          "name": "",
          "type": "tuple[]"
        }
      ],
      "stateMutability": "nonpayable",
      "type": "function"
    }
  ],
  "bytecode": "0x608060405234801561001057600080fd5b506116c4806100206000396000f3fe608060405234801561001057600080fd5b50600436106100365760003560e01c806343a1d3f51461003b57806357b2770114610057575b600080fd5b61005560048036038101906100509190610e43565b610087565b005b610071600480360381019061006c9190610f71565b610218565b60405161007e91906111f1565b60405180910390f35b60006040518060e001604052808973ffffffffffffffffffffffffffffffffffffffff1681526020018881526020018773ffffffffffffffffffffffffffffffffffffffff16815260200186815260200185815260200184815260200183815250908060018154018082558091505060019003906000526020600020906007020160009091909190915060008201518160000160006101000a81548173ffffffffffffffffffffffffffffffffffffffff021916908373ffffffffffffffffffffffffffffffffffffffff160217905550602082015181600101908161016d9190611429565b5060408201518160020160006101000a81548173ffffffffffffffffffffffffffffffffffffffff021916908373ffffffffffffffffffffffffffffffffffffffff16021790555060608201518160030190816101ca9190611429565b5060808201518160040190816101e09190611429565b5060a08201518160050190816101f69190611429565b5060c082015181600601908161020c9190611429565b50505050505050505050565b606060005b6000805490508110156108a4578360405160200161023b9190611537565b60405160208183030381529060405280519060200120600082815481106102655761026461154e565b5b90600052602060002090600702016004016040516020016102869190611600565b604051602081830303815290604052805190602001201480156103185750826040516020016102b59190611537565b60405160208183030381529060405280519060200120600082815481106102df576102de61154e565b5b90600052602060002090600702016005016040516020016103009190611600565b60405160208183030381529060405280519060200120145b156108915760016040518060e001604052806000848154811061033e5761033d61154e565b5b906000526020600020906007020160000160009054906101000a900473ffffffffffffffffffffffffffffffffffffffff1673ffffffffffffffffffffffffffffffffffffffff1681526020016000848154811061039f5761039e61154e565b5b906000526020600020906007020160010180546103bb90611242565b80601f01602080910402602001604051908101604052809291908181526020018280546103e790611242565b80156104345780601f1061040957610100808354040283529160200191610434565b820191906000526020600020905b81548152906001019060200180831161041757829003601f168201915b50505050508152602001600084815481106104525761045161154e565b5b906000526020600020906007020160020160009054906101000a900473ffffffffffffffffffffffffffffffffffffffff1673ffffffffffffffffffffffffffffffffffffffff168152602001600084815481106104b3576104b261154e565b5b906000526020600020906007020160030180546104cf90611242565b80601f01602080910402602001604051908101604052809291908181526020018280546104fb90611242565b80156105485780601f1061051d57610100808354040283529160200191610548565b820191906000526020600020905b81548152906001019060200180831161052b57829003601f168201915b50505050508152602001600084815481106105665761056561154e565b5b9060005260206000209060070201600401805461058290611242565b80601f01602080910402602001604051908101604052809291908181526020018280546105ae90611242565b80156105fb5780601f106105d0576101008083540402835291602001916105fb565b820191906000526020600020905b8154815290600101906020018083116105de57829003601f168201915b50505050508152602001600084815481106106195761061861154e565b5b9060005260206000209060070201600501805461063590611242565b80601f016020809104026020016040519081016040528092919081815260200182805461066190611242565b80156106ae5780601f10610683576101008083540402835291602001916106ae565b820191906000526020600020905b81548152906001019060200180831161069157829003601f168201915b50505050508152602001600084815481106106cc576106cb61154e565b5b906000526020600020906007020160060180546106e890611242565b80601f016020809104026020016040519081016040528092919081815260200182805461071490611242565b80156107615780601f1061073657610100808354040283529160200191610761565b820191906000526020600020905b81548152906001019060200180831161074457829003601f168201915b5050505050815250908060018154018082558091505060019003906000526020600020906007020160009091909190915060008201518160000160006101000a81548173ffffffffffffffffffffffffffffffffffffffff021916908373ffffffffffffffffffffffffffffffffffffffff16021790555060208201518160010190816107ee9190611429565b5060408201518160020160006101000a81548173ffffffffffffffffffffffffffffffffffffffff021916908373ffffffffffffffffffffffffffffffffffffffff160217905550606082015181600301908161084b9190611429565b5060808201518160040190816108619190611429565b5060a08201518160050190816108779190611429565b5060c082015181600601908161088d9190611429565b5050505b808061089c90611646565b91505061021d565b506001805480602002602001604051908101604052809291908181526020016000905b82821015610c7f57838290600052602060002090600702016040518060e00160405290816000820160009054906101000a900473ffffffffffffffffffffffffffffffffffffffff1673ffffffffffffffffffffffffffffffffffffffff1673ffffffffffffffffffffffffffffffffffffffff16815260200160018201805461095090611242565b80601f016020809104026020016040519081016040528092919081815260200182805461097c90611242565b80156109c95780601f1061099e576101008083540402835291602001916109c9565b820191906000526020600020905b8154815290600101906020018083116109ac57829003601f168201915b505050505081526020016002820160009054906101000a900473ffffffffffffffffffffffffffffffffffffffff1673ffffffffffffffffffffffffffffffffffffffff1673ffffffffffffffffffffffffffffffffffffffff168152602001600382018054610a3890611242565b80601f0160208091040260200160405190810160405280929190818152602001828054610a6490611242565b8015610ab15780601f10610a8657610100808354040283529160200191610ab1565b820191906000526020600020905b815481529060010190602001808311610a9457829003601f168201915b50505050508152602001600482018054610aca90611242565b80601f0160208091040260200160405190810160405280929190818152602001828054610af690611242565b8015610b435780601f10610b1857610100808354040283529160200191610b43565b820191906000526020600020905b815481529060010190602001808311610b2657829003601f168201915b50505050508152602001600582018054610b5c90611242565b80601f0160208091040260200160405190810160405280929190818152602001828054610b8890611242565b8015610bd55780601f10610baa57610100808354040283529160200191610bd5565b820191906000526020600020905b815481529060010190602001808311610bb857829003601f168201915b50505050508152602001600682018054610bee90611242565b80601f0160208091040260200160405190810160405280929190818152602001828054610c1a90611242565b8015610c675780601f10610c3c57610100808354040283529160200191610c67565b820191906000526020600020905b815481529060010190602001808311610c4a57829003601f168201915b505050505081525050815260200190600101906108c7565b50505050905092915050565b6000604051905090565b600080fd5b600080fd5b600073ffffffffffffffffffffffffffffffffffffffff82169050919050565b6000610cca82610c9f565b9050919050565b610cda81610cbf565b8114610ce557600080fd5b50565b600081359050610cf781610cd1565b92915050565b600080fd5b600080fd5b6000601f19601f8301169050919050565b7f4e487b7100000000000000000000000000000000000000000000000000000000600052604160045260246000fd5b610d5082610d07565b810181811067ffffffffffffffff82111715610d6f57610d6e610d18565b5b80604052505050565b6000610d82610c8b565b9050610d8e8282610d47565b919050565b600067ffffffffffffffff821115610dae57610dad610d18565b5b610db782610d07565b9050602081019050919050565b82818337600083830152505050565b6000610de6610de184610d93565b610d78565b905082815260208101848484011115610e0257610e01610d02565b5b610e0d848285610dc4565b509392505050565b600082601f830112610e2a57610e29610cfd565b5b8135610e3a848260208601610dd3565b91505092915050565b600080600080600080600060e0888a031215610e6257610e61610c95565b5b6000610e708a828b01610ce8565b975050602088013567ffffffffffffffff811115610e9157610e90610c9a565b5b610e9d8a828b01610e15565b9650506040610eae8a828b01610ce8565b955050606088013567ffffffffffffffff811115610ecf57610ece610c9a565b5b610edb8a828b01610e15565b945050608088013567ffffffffffffffff811115610efc57610efb610c9a565b5b610f088a828b01610e15565b93505060a088013567ffffffffffffffff811115610f2957610f28610c9a565b5b610f358a828b01610e15565b92505060c088013567ffffffffffffffff811115610f5657610f55610c9a565b5b610f628a828b01610e15565b91505092959891949750929550565b60008060408385031215610f8857610f87610c95565b5b600083013567ffffffffffffffff811115610fa657610fa5610c9a565b5b610fb285828601610e15565b925050602083013567ffffffffffffffff811115610fd357610fd2610c9a565b5b610fdf85828601610e15565b9150509250929050565b600081519050919050565b600082825260208201905092915050565b6000819050602082019050919050565b61101e81610cbf565b82525050565b600081519050919050565b600082825260208201905092915050565b60005b8381101561105e578082015181840152602081019050611043565b60008484015250505050565b600061107582611024565b61107f818561102f565b935061108f818560208601611040565b61109881610d07565b840191505092915050565b600060e0830160008301516110bb6000860182611015565b50602083015184820360208601526110d3828261106a565b91505060408301516110e86040860182611015565b5060608301518482036060860152611100828261106a565b9150506080830151848203608086015261111a828261106a565b91505060a083015184820360a0860152611134828261106a565b91505060c083015184820360c086015261114e828261106a565b9150508091505092915050565b600061116783836110a3565b905092915050565b6000602082019050919050565b600061118782610fe9565b6111918185610ff4565b9350836020820285016111a385611005565b8060005b858110156111df57848403895281516111c0858261115b565b94506111cb8361116f565b925060208a019950506001810190506111a7565b50829750879550505050505092915050565b6000602082019050818103600083015261120b818461117c565b905092915050565b7f4e487b7100000000000000000000000000000000000000000000000000000000600052602260045260246000fd5b6000600282049050600182168061125a57607f821691505b60208210810361126d5761126c611213565b5b50919050565b60008190508160005260206000209050919050565b60006020601f8301049050919050565b600082821b905092915050565b6000600883026112d57fffffffffffffffffffffffffffffffffffffffffffffffffffffffffffffffff82611298565b6112df8683611298565b95508019841693508086168417925050509392505050565b6000819050919050565b6000819050919050565b600061132661132161131c846112f7565b611301565b6112f7565b9050919050565b6000819050919050565b6113408361130b565b61135461134c8261132d565b8484546112a5565b825550505050565b600090565b61136961135c565b611374818484611337565b505050565b5b818110156113985761138d600082611361565b60018101905061137a565b5050565b601f8211156113dd576113ae81611273565b6113b784611288565b810160208510156113c6578190505b6113da6113d285611288565b830182611379565b50505b505050565b600082821c905092915050565b6000611400600019846008026113e2565b1980831691505092915050565b600061141983836113ef565b9150826002028217905092915050565b61143282611024565b67ffffffffffffffff81111561144b5761144a610d18565b5b6114558254611242565b61146082828561139c565b600060209050601f8311600181146114935760008415611481578287015190505b61148b858261140d565b8655506114f3565b601f1984166114a186611273565b60005b828110156114c9578489015182556001820191506020850194506020810190506114a4565b868310156114e657848901516114e2601f8916826113ef565b8355505b6001600288020188555050505b505050505050565b600081905092915050565b600061151182611024565b61151b81856114fb565b935061152b818560208601611040565b80840191505092915050565b60006115438284611506565b915081905092915050565b7f4e487b7100000000000000000000000000000000000000000000000000000000600052603260045260246000fd5b6000815461158a81611242565b61159481866114fb565b945060018216600081146115af57600181146115c4576115f7565b60ff19831686528115158202860193506115f7565b6115cd85611273565b60005b838110156115ef578154818901526001820191506020810190506115d0565b838801955050505b50505092915050565b600061160c828461157d565b915081905092915050565b7f4e487b7100000000000000000000000000000000000000000000000000000000600052601160045260246000fd5b6000611651826112f7565b91507fffffffffffffffffffffffffffffffffffffffffffffffffffffffffffffffff820361168357611682611617565b5b60018201905091905056fea2646970667358221220108cc1241257ec20a9ec5b14fd861d041d60494719c31ff523fce9894719265664736f6c63430008120033",
  "immutableReferences": {},
  "source": "// SPDX-License-Identifier: MIT\npragma solidity ^0.8.18;\n\ncontract Transaction{\n\n    struct TransactionItem{\n        address providerKey;\n        string providerName;\n        address receiverKey;\n        string receiverName;\n        string medicineName;\n        string batchNo;\n        string deliveryDate;\n    }\n\n    TransactionItem[] private  transactions;\n    TransactionItem[] private results;\n\n    function createTransaction(\n        address providerKey,\n        string memory providerName,\n        address receiverKey,\n        string memory receiverName,\n        string memory medicineName,\n        string memory batchNo,\n        string memory deliveryDate\n    ) public{\n        transactions.push(TransactionItem(providerKey,providerName,receiverKey,receiverName,medicineName,batchNo,deliveryDate));\n    }\n    \n    function getTransaction(\n        string memory medicineName,\n        string memory batchNo\n    ) public  returns(\n        TransactionItem[] memory\n    ){\n        for(uint i=0; i< transactions.length; i++){\n            if(keccak256(abi.encodePacked(transactions[i].medicineName)) == keccak256(abi.encodePacked(medicineName))\n            && keccak256(abi.encodePacked(transactions[i].batchNo)) == keccak256(abi.encodePacked(batchNo))){\n\n                results.push(TransactionItem(transactions[i].providerKey,transactions[i].providerName,transactions[i].receiverKey,transactions[i].receiverName,transactions[i].medicineName,transactions[i].batchNo,transactions[i].deliveryDate));\n\n            }\n        }\n        return results;\n    }\n}",
  "sourcePath": "/home/mahin/Desktop/trekker/src/contracts/Transaction.sol",
  "compiler": {
    "name": "solc",
    "version": "0.8.18+commit.87f61d96.Emscripten.clang"
  },
  "schemaVersion": "3.4.12",
  "updatedAt": "2023-03-07T07:44:17.368Z",
  "networkType": "ethereum",
  "devdoc": {
    "kind": "dev",
    "methods": {},
    "version": 1
  },
  "userdoc": {
    "kind": "user",
    "methods": {},
    "version": 1
  }
}