{
  "contractName": "User",
  "abi": [
    {
      "inputs": [],
      "stateMutability": "nonpayable",
      "type": "constructor"
    },
    {
      "inputs": [
        {
          "internalType": "address",
          "name": "key",
          "type": "address"
        },
        {
          "internalType": "string",
          "name": "name",
          "type": "string"
        },
        {
          "internalType": "string",
          "name": "wAdd",
          "type": "string"
        },
        {
          "internalType": "string",
          "name": "location",
          "type": "string"
        },
        {
          "internalType": "string",
          "name": "typ",
          "type": "string"
        }
      ],
      "name": "createStakeholder",
      "outputs": [],
      "stateMutability": "nonpayable",
      "type": "function"
    },
    {
      "inputs": [
        {
          "internalType": "address",
          "name": "key",
          "type": "address"
        }
      ],
      "name": "readStakeholder",
      "outputs": [
        {
          "internalType": "string",
          "name": "",
          "type": "string"
        },
        {
          "internalType": "string",
          "name": "",
          "type": "string"
        }
      ],
      "stateMutability": "view",
      "type": "function",
      "constant": true
    }
  ],
  "bytecode": "0x60806040523480156200001157600080fd5b50336000806101000a81548173ffffffffffffffffffffffffffffffffffffffff021916908373ffffffffffffffffffffffffffffffffffffffff16021790555060006040518060a0016040528060008054906101000a900473ffffffffffffffffffffffffffffffffffffffff1673ffffffffffffffffffffffffffffffffffffffff1681526020016040518060400160405280600381526020017f445242000000000000000000000000000000000000000000000000000000000081525081526020016040518060400160405280600781526020017f6472622e636f6d0000000000000000000000000000000000000000000000000081525081526020016040518060400160405280600581526020017f4468616b6100000000000000000000000000000000000000000000000000000081525081526020016040518060400160405280600f81526020017f526567756c61746f727920426f64790000000000000000000000000000000000815250815250905080600160008060009054906101000a900473ffffffffffffffffffffffffffffffffffffffff1673ffffffffffffffffffffffffffffffffffffffff1673ffffffffffffffffffffffffffffffffffffffff16815260200190815260200160002060008201518160000160006101000a81548173ffffffffffffffffffffffffffffffffffffffff021916908373ffffffffffffffffffffffffffffffffffffffff160217905550602082015181600101908162000246919062000513565b5060408201518160020190816200025e919062000513565b50606082015181600301908162000276919062000513565b5060808201518160040190816200028e919062000513565b5090505050620005fa565b600081519050919050565b7f4e487b7100000000000000000000000000000000000000000000000000000000600052604160045260246000fd5b7f4e487b7100000000000000000000000000000000000000000000000000000000600052602260045260246000fd5b600060028204905060018216806200031b57607f821691505b602082108103620003315762000330620002d3565b5b50919050565b60008190508160005260206000209050919050565b60006020601f8301049050919050565b600082821b905092915050565b6000600883026200039b7fffffffffffffffffffffffffffffffffffffffffffffffffffffffffffffffff826200035c565b620003a786836200035c565b95508019841693508086168417925050509392505050565b6000819050919050565b6000819050919050565b6000620003f4620003ee620003e884620003bf565b620003c9565b620003bf565b9050919050565b6000819050919050565b6200041083620003d3565b620004286200041f82620003fb565b84845462000369565b825550505050565b600090565b6200043f62000430565b6200044c81848462000405565b505050565b5b8181101562000474576200046860008262000435565b60018101905062000452565b5050565b601f821115620004c3576200048d8162000337565b62000498846200034c565b81016020851015620004a8578190505b620004c0620004b7856200034c565b83018262000451565b50505b505050565b600082821c905092915050565b6000620004e860001984600802620004c8565b1980831691505092915050565b6000620005038383620004d5565b9150826002028217905092915050565b6200051e8262000299565b67ffffffffffffffff8111156200053a5762000539620002a4565b5b62000546825462000302565b6200055382828562000478565b600060209050601f8311600181146200058b576000841562000576578287015190505b620005828582620004f5565b865550620005f2565b601f1984166200059b8662000337565b60005b82811015620005c5578489015182556001820191506020850194506020810190506200059e565b86831015620005e55784890151620005e1601f891682620004d5565b8355505b6001600288020188555050505b505050505050565b610b93806200060a6000396000f3fe608060405234801561001057600080fd5b50600436106100365760003560e01c80638b41d32e1461003b578063ea4ee34c14610057575b600080fd5b6100556004803603810190610050919061063b565b610088565b005b610071600480360381019061006c9190610726565b61020b565b60405161007f9291906107d2565b60405180910390f35b60008054906101000a900473ffffffffffffffffffffffffffffffffffffffff1673ffffffffffffffffffffffffffffffffffffffff163373ffffffffffffffffffffffffffffffffffffffff16146100e057600080fd5b60006040518060a001604052808773ffffffffffffffffffffffffffffffffffffffff16815260200186815260200185815260200184815260200183815250905080600160008873ffffffffffffffffffffffffffffffffffffffff1673ffffffffffffffffffffffffffffffffffffffff16815260200190815260200160002060008201518160000160006101000a81548173ffffffffffffffffffffffffffffffffffffffff021916908373ffffffffffffffffffffffffffffffffffffffff16021790555060208201518160010190816101bd9190610a1f565b5060408201518160020190816101d39190610a1f565b5060608201518160030190816101e99190610a1f565b5060808201518160040190816101ff9190610a1f565b50905050505050505050565b6060808273ffffffffffffffffffffffffffffffffffffffff16600160008573ffffffffffffffffffffffffffffffffffffffff1673ffffffffffffffffffffffffffffffffffffffff16815260200190815260200160002060000160009054906101000a900473ffffffffffffffffffffffffffffffffffffffff1673ffffffffffffffffffffffffffffffffffffffff16146102de576040517f08c379a00000000000000000000000000000000000000000000000000000000081526004016102d590610b3d565b60405180910390fd5b600160008473ffffffffffffffffffffffffffffffffffffffff1673ffffffffffffffffffffffffffffffffffffffff168152602001908152602001600020600101600160008573ffffffffffffffffffffffffffffffffffffffff1673ffffffffffffffffffffffffffffffffffffffff16815260200190815260200160002060040181805461036e90610838565b80601f016020809104026020016040519081016040528092919081815260200182805461039a90610838565b80156103e75780601f106103bc576101008083540402835291602001916103e7565b820191906000526020600020905b8154815290600101906020018083116103ca57829003601f168201915b505050505091508080546103fa90610838565b80601f016020809104026020016040519081016040528092919081815260200182805461042690610838565b80156104735780601f1061044857610100808354040283529160200191610473565b820191906000526020600020905b81548152906001019060200180831161045657829003601f168201915b5050505050905091509150915091565b6000604051905090565b600080fd5b600080fd5b600073ffffffffffffffffffffffffffffffffffffffff82169050919050565b60006104c282610497565b9050919050565b6104d2816104b7565b81146104dd57600080fd5b50565b6000813590506104ef816104c9565b92915050565b600080fd5b600080fd5b6000601f19601f8301169050919050565b7f4e487b7100000000000000000000000000000000000000000000000000000000600052604160045260246000fd5b610548826104ff565b810181811067ffffffffffffffff8211171561056757610566610510565b5b80604052505050565b600061057a610483565b9050610586828261053f565b919050565b600067ffffffffffffffff8211156105a6576105a5610510565b5b6105af826104ff565b9050602081019050919050565b82818337600083830152505050565b60006105de6105d98461058b565b610570565b9050828152602081018484840111156105fa576105f96104fa565b5b6106058482856105bc565b509392505050565b600082601f830112610622576106216104f5565b5b81356106328482602086016105cb565b91505092915050565b600080600080600060a086880312156106575761065661048d565b5b6000610665888289016104e0565b955050602086013567ffffffffffffffff81111561068657610685610492565b5b6106928882890161060d565b945050604086013567ffffffffffffffff8111156106b3576106b2610492565b5b6106bf8882890161060d565b935050606086013567ffffffffffffffff8111156106e0576106df610492565b5b6106ec8882890161060d565b925050608086013567ffffffffffffffff81111561070d5761070c610492565b5b6107198882890161060d565b9150509295509295909350565b60006020828403121561073c5761073b61048d565b5b600061074a848285016104e0565b91505092915050565b600081519050919050565b600082825260208201905092915050565b60005b8381101561078d578082015181840152602081019050610772565b60008484015250505050565b60006107a482610753565b6107ae818561075e565b93506107be81856020860161076f565b6107c7816104ff565b840191505092915050565b600060408201905081810360008301526107ec8185610799565b905081810360208301526108008184610799565b90509392505050565b7f4e487b7100000000000000000000000000000000000000000000000000000000600052602260045260246000fd5b6000600282049050600182168061085057607f821691505b60208210810361086357610862610809565b5b50919050565b60008190508160005260206000209050919050565b60006020601f8301049050919050565b600082821b905092915050565b6000600883026108cb7fffffffffffffffffffffffffffffffffffffffffffffffffffffffffffffffff8261088e565b6108d5868361088e565b95508019841693508086168417925050509392505050565b6000819050919050565b6000819050919050565b600061091c610917610912846108ed565b6108f7565b6108ed565b9050919050565b6000819050919050565b61093683610901565b61094a61094282610923565b84845461089b565b825550505050565b600090565b61095f610952565b61096a81848461092d565b505050565b5b8181101561098e57610983600082610957565b600181019050610970565b5050565b601f8211156109d3576109a481610869565b6109ad8461087e565b810160208510156109bc578190505b6109d06109c88561087e565b83018261096f565b50505b505050565b600082821c905092915050565b60006109f6600019846008026109d8565b1980831691505092915050565b6000610a0f83836109e5565b9150826002028217905092915050565b610a2882610753565b67ffffffffffffffff811115610a4157610a40610510565b5b610a4b8254610838565b610a56828285610992565b600060209050601f831160018114610a895760008415610a77578287015190505b610a818582610a03565b865550610ae9565b601f198416610a9786610869565b60005b82811015610abf57848901518255600182019150602085019450602081019050610a9a565b86831015610adc5784890151610ad8601f8916826109e5565b8355505b6001600288020188555050505b505050505050565b7f55736572206e6f7420666f756e64000000000000000000000000000000000000600082015250565b6000610b27600e8361075e565b9150610b3282610af1565b602082019050919050565b60006020820190508181036000830152610b5681610b1a565b905091905056fea26469706673582212200040cfef2d3846de4c93bcb3d4e4c495fd908d8095c6a07b8546eb419b39a7df64736f6c63430008120033",
  "immutableReferences": {},
  "source": "// SPDX-License-Identifier: MIT\npragma solidity ^0.8.18;\n\ncontract User {\n    address owner;\n    struct Stakeholder {\n        address key;\n        string name;\n        string wAdd;\n        string location;\n        string typ;\n    }\n    // Stakeholder[] private stakeholders;\n    mapping(address=>Stakeholder) users;\n    constructor()\n    {\n        owner=msg.sender;\n        Stakeholder memory temp = Stakeholder(owner,\"DRB\",\"drb.com\",\"Dhaka\",\"Regulatory Body\");\n        users[owner]=temp;\n        // stakeholders.push(temp);\n    }\n    \n    modifier onlyOwner () {\n        require(msg.sender == owner);\n        _;\n    }\n    function createStakeholder(address key,string memory name, string memory wAdd,string memory  location,string memory typ) public onlyOwner {\n        \n        Stakeholder memory temp = Stakeholder(key,name,wAdd,location,typ);\n        users[key]=temp;\n        // stakeholders.push(temp);\n    }\n\n    function readStakeholder(address key) public view returns (string memory, string memory) {\n        require((users[key].key==key),\"User not found\");\n        return (users[key].name, users[key].typ);\n    }\n\n}\n\n\n",
  "sourcePath": "/home/mahin/Desktop/trekker/src/contracts/User.sol",
  "compiler": {
    "name": "solc",
    "version": "0.8.18+commit.87f61d96.Emscripten.clang"
  },
  "schemaVersion": "3.4.12",
  "updatedAt": "2023-03-07T07:44:16.399Z",
  "networkType": "ethereum",
  "devdoc": {
    "kind": "dev",
    "methods": {},
    "version": 1
  },
  "userdoc": {
    "kind": "user",
    "methods": {},
    "version": 1
  }
}