{
  "contractName": "User",
  "abi": [
    {
      "inputs": [],
      "stateMutability": "nonpayable",
      "type": "constructor"
    },
    {
      "inputs": [
        {
          "internalType": "address",
          "name": "key",
          "type": "address"
        },
        {
          "internalType": "string",
          "name": "name",
          "type": "string"
        },
        {
          "internalType": "string",
          "name": "wAdd",
          "type": "string"
        },
        {
          "internalType": "string",
          "name": "location",
          "type": "string"
        },
        {
          "internalType": "string",
          "name": "typ",
          "type": "string"
        }
      ],
      "name": "createStakeholder",
      "outputs": [],
      "stateMutability": "nonpayable",
      "type": "function"
    },
    {
      "inputs": [
        {
          "internalType": "address",
          "name": "key",
          "type": "address"
        }
      ],
      "name": "readStakeholder",
      "outputs": [
        {
          "internalType": "string",
          "name": "",
          "type": "string"
        },
        {
          "internalType": "string",
          "name": "",
          "type": "string"
        }
      ],
      "stateMutability": "view",
      "type": "function",
      "constant": true
    },
    {
      "inputs": [
        {
          "internalType": "string",
          "name": "typ",
          "type": "string"
        }
      ],
      "name": "numberofStakeholder",
      "outputs": [
        {
          "internalType": "uint256",
          "name": "",
          "type": "uint256"
        }
      ],
      "stateMutability": "view",
      "type": "function",
      "constant": true
    }
  ],
  "bytecode": "0x60806040523480156200001157600080fd5b50336000806101000a81548173ffffffffffffffffffffffffffffffffffffffff021916908373ffffffffffffffffffffffffffffffffffffffff16021790555060006040518060a0016040528060008054906101000a900473ffffffffffffffffffffffffffffffffffffffff1673ffffffffffffffffffffffffffffffffffffffff1681526020016040518060400160405280600381526020017f445242000000000000000000000000000000000000000000000000000000000081525081526020016040518060400160405280600781526020017f6472622e636f6d0000000000000000000000000000000000000000000000000081525081526020016040518060400160405280600581526020017f4468616b6100000000000000000000000000000000000000000000000000000081525081526020016040518060400160405280600f81526020017f526567756c61746f727920426f64790000000000000000000000000000000000815250815250905080600260008060009054906101000a900473ffffffffffffffffffffffffffffffffffffffff1673ffffffffffffffffffffffffffffffffffffffff1673ffffffffffffffffffffffffffffffffffffffff16815260200190815260200160002060008201518160000160006101000a81548173ffffffffffffffffffffffffffffffffffffffff021916908373ffffffffffffffffffffffffffffffffffffffff1602179055506020820151816001019081620002469190620005e8565b5060408201518160020190816200025e9190620005e8565b506060820151816003019081620002769190620005e8565b5060808201518160040190816200028e9190620005e8565b50905050600181908060018154018082558091505060019003906000526020600020906005020160009091909190915060008201518160000160006101000a81548173ffffffffffffffffffffffffffffffffffffffff021916908373ffffffffffffffffffffffffffffffffffffffff16021790555060208201518160010190816200031c9190620005e8565b506040820151816002019081620003349190620005e8565b5060608201518160030190816200034c9190620005e8565b506080820151816004019081620003649190620005e8565b50505050620006cf565b600081519050919050565b7f4e487b7100000000000000000000000000000000000000000000000000000000600052604160045260246000fd5b7f4e487b7100000000000000000000000000000000000000000000000000000000600052602260045260246000fd5b60006002820490506001821680620003f057607f821691505b602082108103620004065762000405620003a8565b5b50919050565b60008190508160005260206000209050919050565b60006020601f8301049050919050565b600082821b905092915050565b600060088302620004707fffffffffffffffffffffffffffffffffffffffffffffffffffffffffffffffff8262000431565b6200047c868362000431565b95508019841693508086168417925050509392505050565b6000819050919050565b6000819050919050565b6000620004c9620004c3620004bd8462000494565b6200049e565b62000494565b9050919050565b6000819050919050565b620004e583620004a8565b620004fd620004f482620004d0565b8484546200043e565b825550505050565b600090565b6200051462000505565b62000521818484620004da565b505050565b5b8181101562000549576200053d6000826200050a565b60018101905062000527565b5050565b601f821115620005985762000562816200040c565b6200056d8462000421565b810160208510156200057d578190505b620005956200058c8562000421565b83018262000526565b50505b505050565b600082821c905092915050565b6000620005bd600019846008026200059d565b1980831691505092915050565b6000620005d88383620005aa565b9150826002028217905092915050565b620005f3826200036e565b67ffffffffffffffff8111156200060f576200060e62000379565b5b6200061b8254620003d7565b620006288282856200054d565b600060209050601f8311600181146200066057600084156200064b578287015190505b620006578582620005ca565b865550620006c7565b601f19841662000670866200040c565b60005b828110156200069a5784890151825560018201915060208501945060208101905062000673565b86831015620006ba5784890151620006b6601f891682620005aa565b8355505b6001600288020188555050505b505050505050565b610f5b80620006df6000396000f3fe608060405234801561001057600080fd5b50600436106100415760003560e01c80637f84a091146100465780638b41d32e14610076578063ea4ee34c14610092575b600080fd5b610060600480360381019061005b919061079f565b6100c3565b60405161006d9190610801565b60405180910390f35b610090600480360381019061008b919061087a565b61017d565b005b6100ac60048036038101906100a79190610965565b6103cd565b6040516100ba929190610a11565b60405180910390f35b6000806000905060005b60018054905081101561017357836040516020016100eb9190610a84565b604051602081830303815290604052805190602001206001828154811061011557610114610a9b565b5b90600052602060002090600502016004016040516020016101369190610bc2565b604051602081830303815290604052805190602001200361016057818061015c90610c08565b9250505b808061016b90610c08565b9150506100cd565b5080915050919050565b60008054906101000a900473ffffffffffffffffffffffffffffffffffffffff1673ffffffffffffffffffffffffffffffffffffffff163373ffffffffffffffffffffffffffffffffffffffff16146101d557600080fd5b60006040518060a001604052808773ffffffffffffffffffffffffffffffffffffffff16815260200186815260200185815260200184815260200183815250905080600260008873ffffffffffffffffffffffffffffffffffffffff1673ffffffffffffffffffffffffffffffffffffffff16815260200190815260200160002060008201518160000160006101000a81548173ffffffffffffffffffffffffffffffffffffffff021916908373ffffffffffffffffffffffffffffffffffffffff16021790555060208201518160010190816102b29190610de7565b5060408201518160020190816102c89190610de7565b5060608201518160030190816102de9190610de7565b5060808201518160040190816102f49190610de7565b50905050600181908060018154018082558091505060019003906000526020600020906005020160009091909190915060008201518160000160006101000a81548173ffffffffffffffffffffffffffffffffffffffff021916908373ffffffffffffffffffffffffffffffffffffffff16021790555060208201518160010190816103809190610de7565b5060408201518160020190816103969190610de7565b5060608201518160030190816103ac9190610de7565b5060808201518160040190816103c29190610de7565b505050505050505050565b6060808273ffffffffffffffffffffffffffffffffffffffff16600260008573ffffffffffffffffffffffffffffffffffffffff1673ffffffffffffffffffffffffffffffffffffffff16815260200190815260200160002060000160009054906101000a900473ffffffffffffffffffffffffffffffffffffffff1673ffffffffffffffffffffffffffffffffffffffff16146104a0576040517f08c379a000000000000000000000000000000000000000000000000000000000815260040161049790610f05565b60405180910390fd5b600260008473ffffffffffffffffffffffffffffffffffffffff1673ffffffffffffffffffffffffffffffffffffffff168152602001908152602001600020600101600260008573ffffffffffffffffffffffffffffffffffffffff1673ffffffffffffffffffffffffffffffffffffffff16815260200190815260200160002060040181805461053090610af9565b80601f016020809104026020016040519081016040528092919081815260200182805461055c90610af9565b80156105a95780601f1061057e576101008083540402835291602001916105a9565b820191906000526020600020905b81548152906001019060200180831161058c57829003601f168201915b505050505091508080546105bc90610af9565b80601f01602080910402602001604051908101604052809291908181526020018280546105e890610af9565b80156106355780601f1061060a57610100808354040283529160200191610635565b820191906000526020600020905b81548152906001019060200180831161061857829003601f168201915b5050505050905091509150915091565b6000604051905090565b600080fd5b600080fd5b600080fd5b600080fd5b6000601f19601f8301169050919050565b7f4e487b7100000000000000000000000000000000000000000000000000000000600052604160045260246000fd5b6106ac82610663565b810181811067ffffffffffffffff821117156106cb576106ca610674565b5b80604052505050565b60006106de610645565b90506106ea82826106a3565b919050565b600067ffffffffffffffff82111561070a57610709610674565b5b61071382610663565b9050602081019050919050565b82818337600083830152505050565b600061074261073d846106ef565b6106d4565b90508281526020810184848401111561075e5761075d61065e565b5b610769848285610720565b509392505050565b600082601f83011261078657610785610659565b5b813561079684826020860161072f565b91505092915050565b6000602082840312156107b5576107b461064f565b5b600082013567ffffffffffffffff8111156107d3576107d2610654565b5b6107df84828501610771565b91505092915050565b6000819050919050565b6107fb816107e8565b82525050565b600060208201905061081660008301846107f2565b92915050565b600073ffffffffffffffffffffffffffffffffffffffff82169050919050565b60006108478261081c565b9050919050565b6108578161083c565b811461086257600080fd5b50565b6000813590506108748161084e565b92915050565b600080600080600060a086880312156108965761089561064f565b5b60006108a488828901610865565b955050602086013567ffffffffffffffff8111156108c5576108c4610654565b5b6108d188828901610771565b945050604086013567ffffffffffffffff8111156108f2576108f1610654565b5b6108fe88828901610771565b935050606086013567ffffffffffffffff81111561091f5761091e610654565b5b61092b88828901610771565b925050608086013567ffffffffffffffff81111561094c5761094b610654565b5b61095888828901610771565b9150509295509295909350565b60006020828403121561097b5761097a61064f565b5b600061098984828501610865565b91505092915050565b600081519050919050565b600082825260208201905092915050565b60005b838110156109cc5780820151818401526020810190506109b1565b60008484015250505050565b60006109e382610992565b6109ed818561099d565b93506109fd8185602086016109ae565b610a0681610663565b840191505092915050565b60006040820190508181036000830152610a2b81856109d8565b90508181036020830152610a3f81846109d8565b90509392505050565b600081905092915050565b6000610a5e82610992565b610a688185610a48565b9350610a788185602086016109ae565b80840191505092915050565b6000610a908284610a53565b915081905092915050565b7f4e487b7100000000000000000000000000000000000000000000000000000000600052603260045260246000fd5b7f4e487b7100000000000000000000000000000000000000000000000000000000600052602260045260246000fd5b60006002820490506001821680610b1157607f821691505b602082108103610b2457610b23610aca565b5b50919050565b60008190508160005260206000209050919050565b60008154610b4c81610af9565b610b568186610a48565b94506001821660008114610b715760018114610b8657610bb9565b60ff1983168652811515820286019350610bb9565b610b8f85610b2a565b60005b83811015610bb157815481890152600182019150602081019050610b92565b838801955050505b50505092915050565b6000610bce8284610b3f565b915081905092915050565b7f4e487b7100000000000000000000000000000000000000000000000000000000600052601160045260246000fd5b6000610c13826107e8565b91507fffffffffffffffffffffffffffffffffffffffffffffffffffffffffffffffff8203610c4557610c44610bd9565b5b600182019050919050565b60006020601f8301049050919050565b600082821b905092915050565b600060088302610c9d7fffffffffffffffffffffffffffffffffffffffffffffffffffffffffffffffff82610c60565b610ca78683610c60565b95508019841693508086168417925050509392505050565b6000819050919050565b6000610ce4610cdf610cda846107e8565b610cbf565b6107e8565b9050919050565b6000819050919050565b610cfe83610cc9565b610d12610d0a82610ceb565b848454610c6d565b825550505050565b600090565b610d27610d1a565b610d32818484610cf5565b505050565b5b81811015610d5657610d4b600082610d1f565b600181019050610d38565b5050565b601f821115610d9b57610d6c81610b2a565b610d7584610c50565b81016020851015610d84578190505b610d98610d9085610c50565b830182610d37565b50505b505050565b600082821c905092915050565b6000610dbe60001984600802610da0565b1980831691505092915050565b6000610dd78383610dad565b9150826002028217905092915050565b610df082610992565b67ffffffffffffffff811115610e0957610e08610674565b5b610e138254610af9565b610e1e828285610d5a565b600060209050601f831160018114610e515760008415610e3f578287015190505b610e498582610dcb565b865550610eb1565b601f198416610e5f86610b2a565b60005b82811015610e8757848901518255600182019150602085019450602081019050610e62565b86831015610ea45784890151610ea0601f891682610dad565b8355505b6001600288020188555050505b505050505050565b7f55736572206e6f7420666f756e64000000000000000000000000000000000000600082015250565b6000610eef600e8361099d565b9150610efa82610eb9565b602082019050919050565b60006020820190508181036000830152610f1e81610ee2565b905091905056fea2646970667358221220435e5d8a581d089dbca66ad410bab9de243e4b499d166e3dbd448cfa90d0f4a764736f6c63430008120033",
  "immutableReferences": {},
  "source": "// SPDX-License-Identifier: MIT\npragma solidity ^0.8.18;\n\ncontract User {\n    address owner;\n    struct Stakeholder {\n        address key;\n        string name;\n        string wAdd;\n        string location;\n        string typ;\n    }\n    Stakeholder[] private stakeholders;\n    mapping(address=>Stakeholder) users;\n    constructor()\n    {\n        owner=msg.sender;\n        Stakeholder memory temp = Stakeholder(owner,\"DRB\",\"drb.com\",\"Dhaka\",\"Regulatory Body\");\n        users[owner]=temp;\n        stakeholders.push(temp);\n    }\n    \n    modifier onlyOwner () {\n        require(msg.sender == owner);\n        _;\n    }\n    function createStakeholder(address key,string memory name, string memory wAdd,string memory  location,string memory typ) public onlyOwner {\n        \n        Stakeholder memory temp = Stakeholder(key,name,wAdd,location,typ);\n        users[key]=temp;\n        stakeholders.push(temp);\n    }\n\n    function readStakeholder(address key) public view returns (string memory, string memory) {\n        require((users[key].key==key),\"User not found\");\n        return (users[key].name, users[key].typ);\n    }\n\n    function numberofStakeholder(string memory typ) public view returns(uint){\n\n        uint count = 0;\n\n        for(uint i = 0; i < stakeholders.length; i++){\n            if (keccak256(abi.encodePacked(stakeholders[i].typ)) == keccak256(abi.encodePacked(typ))){\n                count++;\n            } \n        }\n\n        return count;\n    }\n\n}\n\n\n",
  "sourcePath": "/home/mahin/Desktop/trekker/src/contracts/User.sol",
  "compiler": {
    "name": "solc",
    "version": "0.8.18+commit.87f61d96.Emscripten.clang"
  },
  "schemaVersion": "3.4.12",
  "updatedAt": "2023-03-13T07:43:45.969Z",
  "networkType": "ethereum",
  "devdoc": {
    "kind": "dev",
    "methods": {},
    "version": 1
  },
  "userdoc": {
    "kind": "user",
    "methods": {},
    "version": 1
  }
}