{
  "contractName": "User",
  "abi": [
    {
      "inputs": [],
      "stateMutability": "nonpayable",
      "type": "constructor"
    },
    {
      "inputs": [
        {
          "internalType": "string",
          "name": "key",
          "type": "string"
        },
        {
          "internalType": "string",
          "name": "name",
          "type": "string"
        },
        {
          "internalType": "string",
          "name": "wAdd",
          "type": "string"
        },
        {
          "internalType": "string",
          "name": "location",
          "type": "string"
        },
        {
          "internalType": "string",
          "name": "typ",
          "type": "string"
        }
      ],
      "name": "createStakeholder",
      "outputs": [],
      "stateMutability": "nonpayable",
      "type": "function"
    },
    {
      "inputs": [
        {
          "internalType": "string",
          "name": "key",
          "type": "string"
        }
      ],
      "name": "readStakeholder",
      "outputs": [
        {
          "internalType": "string",
          "name": "",
          "type": "string"
        },
        {
          "internalType": "string",
          "name": "",
          "type": "string"
        }
      ],
      "stateMutability": "view",
      "type": "function",
      "constant": true
    }
  ],
  "bytecode": "0x608060405234801561001057600080fd5b50336000806101000a81548173ffffffffffffffffffffffffffffffffffffffff021916908373ffffffffffffffffffffffffffffffffffffffff160217905550610c70806100606000396000f3fe608060405234801561001057600080fd5b50600436106100365760003560e01c80634cfad9371461003b578063736bdbff14610057575b600080fd5b6100556004803603810190610050919061054d565b610088565b005b610071600480360381019061006c9190610654565b6101a9565b60405161007f92919061071c565b60405180910390f35b60008054906101000a900473ffffffffffffffffffffffffffffffffffffffff1673ffffffffffffffffffffffffffffffffffffffff163373ffffffffffffffffffffffffffffffffffffffff16146100e057600080fd5b60016040518060a0016040528087815260200186815260200185815260200184815260200183815250908060018154018082558091505060019003906000526020600020906005020160009091909190915060008201518160000190816101479190610969565b50602082015181600101908161015d9190610969565b5060408201518160020190816101739190610969565b5060608201518160030190816101899190610969565b50608082015181600401908161019f9190610969565b5050505050505050565b60608060005b6001805490508110156103b257836040516020016101cd9190610a77565b60405160208183030381529060405280519060200120600182815481106101f7576101f6610a8e565b5b90600052602060002090600502016000016040516020016102189190610b40565b604051602081830303815290604052805190602001200361039f576001818154811061024757610246610a8e565b5b90600052602060002090600502016001016001828154811061026c5761026b610a8e565b5b906000526020600020906005020160040181805461028990610782565b80601f01602080910402602001604051908101604052809291908181526020018280546102b590610782565b80156103025780601f106102d757610100808354040283529160200191610302565b820191906000526020600020905b8154815290600101906020018083116102e557829003601f168201915b5050505050915080805461031590610782565b80601f016020809104026020016040519081016040528092919081815260200182805461034190610782565b801561038e5780601f106103635761010080835404028352916020019161038e565b820191906000526020600020905b81548152906001019060200180831161037157829003601f168201915b5050505050905092509250506103ee565b80806103aa90610b86565b9150506101af565b506040517f08c379a00000000000000000000000000000000000000000000000000000000081526004016103e590610c1a565b60405180910390fd5b915091565b6000604051905090565b600080fd5b600080fd5b600080fd5b600080fd5b6000601f19601f8301169050919050565b7f4e487b7100000000000000000000000000000000000000000000000000000000600052604160045260246000fd5b61045a82610411565b810181811067ffffffffffffffff8211171561047957610478610422565b5b80604052505050565b600061048c6103f3565b90506104988282610451565b919050565b600067ffffffffffffffff8211156104b8576104b7610422565b5b6104c182610411565b9050602081019050919050565b82818337600083830152505050565b60006104f06104eb8461049d565b610482565b90508281526020810184848401111561050c5761050b61040c565b5b6105178482856104ce565b509392505050565b600082601f83011261053457610533610407565b5b81356105448482602086016104dd565b91505092915050565b600080600080600060a08688031215610569576105686103fd565b5b600086013567ffffffffffffffff81111561058757610586610402565b5b6105938882890161051f565b955050602086013567ffffffffffffffff8111156105b4576105b3610402565b5b6105c08882890161051f565b945050604086013567ffffffffffffffff8111156105e1576105e0610402565b5b6105ed8882890161051f565b935050606086013567ffffffffffffffff81111561060e5761060d610402565b5b61061a8882890161051f565b925050608086013567ffffffffffffffff81111561063b5761063a610402565b5b6106478882890161051f565b9150509295509295909350565b60006020828403121561066a576106696103fd565b5b600082013567ffffffffffffffff81111561068857610687610402565b5b6106948482850161051f565b91505092915050565b600081519050919050565b600082825260208201905092915050565b60005b838110156106d75780820151818401526020810190506106bc565b60008484015250505050565b60006106ee8261069d565b6106f881856106a8565b93506107088185602086016106b9565b61071181610411565b840191505092915050565b6000604082019050818103600083015261073681856106e3565b9050818103602083015261074a81846106e3565b90509392505050565b7f4e487b7100000000000000000000000000000000000000000000000000000000600052602260045260246000fd5b6000600282049050600182168061079a57607f821691505b6020821081036107ad576107ac610753565b5b50919050565b60008190508160005260206000209050919050565b60006020601f8301049050919050565b600082821b905092915050565b6000600883026108157fffffffffffffffffffffffffffffffffffffffffffffffffffffffffffffffff826107d8565b61081f86836107d8565b95508019841693508086168417925050509392505050565b6000819050919050565b6000819050919050565b600061086661086161085c84610837565b610841565b610837565b9050919050565b6000819050919050565b6108808361084b565b61089461088c8261086d565b8484546107e5565b825550505050565b600090565b6108a961089c565b6108b4818484610877565b505050565b5b818110156108d8576108cd6000826108a1565b6001810190506108ba565b5050565b601f82111561091d576108ee816107b3565b6108f7846107c8565b81016020851015610906578190505b61091a610912856107c8565b8301826108b9565b50505b505050565b600082821c905092915050565b600061094060001984600802610922565b1980831691505092915050565b6000610959838361092f565b9150826002028217905092915050565b6109728261069d565b67ffffffffffffffff81111561098b5761098a610422565b5b6109958254610782565b6109a08282856108dc565b600060209050601f8311600181146109d357600084156109c1578287015190505b6109cb858261094d565b865550610a33565b601f1984166109e1866107b3565b60005b82811015610a09578489015182556001820191506020850194506020810190506109e4565b86831015610a265784890151610a22601f89168261092f565b8355505b6001600288020188555050505b505050505050565b600081905092915050565b6000610a518261069d565b610a5b8185610a3b565b9350610a6b8185602086016106b9565b80840191505092915050565b6000610a838284610a46565b915081905092915050565b7f4e487b7100000000000000000000000000000000000000000000000000000000600052603260045260246000fd5b60008154610aca81610782565b610ad48186610a3b565b94506001821660008114610aef5760018114610b0457610b37565b60ff1983168652811515820286019350610b37565b610b0d856107b3565b60005b83811015610b2f57815481890152600182019150602081019050610b10565b838801955050505b50505092915050565b6000610b4c8284610abd565b915081905092915050565b7f4e487b7100000000000000000000000000000000000000000000000000000000600052601160045260246000fd5b6000610b9182610837565b91507fffffffffffffffffffffffffffffffffffffffffffffffffffffffffffffffff8203610bc357610bc2610b57565b5b600182019050919050565b7f55736572206e6f7420666f756e64000000000000000000000000000000000000600082015250565b6000610c04600e836106a8565b9150610c0f82610bce565b602082019050919050565b60006020820190508181036000830152610c3381610bf7565b905091905056fea2646970667358221220e1bb3415973e91da41fd346fca2dcc161bcda59b46ff923c1558a432a9dbce3a64736f6c63430008120033",
  "immutableReferences": {},
  "source": "// SPDX-License-Identifier: MIT\npragma solidity ^0.8.18;\n\ncontract User {\n    address owner;\n    struct Stakeholder {\n        string key;\n        string name;\n        string wAdd;\n        string location;\n        string typ;\n    }\n    constructor()\n    {\n        owner=msg.sender;\n    }\n    Stakeholder[] private stakeholders;\n    modifier onlyOwner () {\n        require(msg.sender == owner);\n        _;\n    }\n    function createStakeholder(string memory key,string memory name, string memory wAdd,string memory  location,string memory typ) public onlyOwner {\n        stakeholders.push(Stakeholder(key,name,wAdd,location,typ));\n    }\n\n    function readStakeholder(string memory key) public view returns (string memory, string memory) {\n\n        for (uint i = 0; i < stakeholders.length; i++) {\n            if (keccak256(abi.encodePacked(stakeholders[i].key)) == keccak256(abi.encodePacked(key))) {\n                return (stakeholders[i].name, stakeholders[i].typ);\n            }\n        }\n        revert(\"User not found\");\n    }\n\n}\n\n\n",
  "sourcePath": "/home/mahin/Desktop/trekker/src/contracts/User.sol",
  "compiler": {
    "name": "solc",
    "version": "0.8.18+commit.87f61d96.Emscripten.clang"
  },
  "schemaVersion": "3.4.12",
  "updatedAt": "2023-03-03T20:41:19.397Z",
  "networkType": "ethereum",
  "devdoc": {
    "kind": "dev",
    "methods": {},
    "version": 1
  },
  "userdoc": {
    "kind": "user",
    "methods": {},
    "version": 1
  }
}